{
  "contractName": "ASTRAEA",
  "abi": [
    {
      "anonymous": false,
      "inputs": [
        {
          "indexed": true,
          "internalType": "uint256",
          "name": "_id",
          "type": "uint256"
        },
        {
          "indexed": false,
          "internalType": "enum ASTRAEA.Outcome",
          "name": "_gameOutcome",
          "type": "uint8"
        },
        {
          "indexed": false,
          "internalType": "enum ASTRAEA.Outcome",
          "name": "_votingOutcome",
          "type": "uint8"
        },
        {
          "indexed": false,
          "internalType": "enum ASTRAEA.Outcome",
          "name": "_certOutcome",
          "type": "uint8"
        }
      ],
      "name": "PollClosed",
      "type": "event"
    },
    {
      "anonymous": false,
      "inputs": [
        {
          "indexed": true,
          "internalType": "uint256",
          "name": "_id",
          "type": "uint256"
        },
        {
          "indexed": true,
          "internalType": "address",
          "name": "_submitter",
          "type": "address"
        },
        {
          "indexed": false,
          "internalType": "string",
          "name": "_url",
          "type": "string"
        }
      ],
      "name": "PollCreated",
      "type": "event"
    },
    {
      "inputs": [],
      "name": "MAX_VOTE_STAKE",
      "outputs": [
        {
          "internalType": "uint256",
          "name": "",
          "type": "uint256"
        }
      ],
      "stateMutability": "view",
      "type": "function"
    },
    {
      "inputs": [],
      "name": "MIN_CERT_STAKE",
      "outputs": [
        {
          "internalType": "uint256",
          "name": "",
          "type": "uint256"
        }
      ],
      "stateMutability": "view",
      "type": "function"
    },
    {
      "inputs": [],
      "name": "SUBMISSION_FEE",
      "outputs": [
        {
          "internalType": "uint256",
          "name": "",
          "type": "uint256"
        }
      ],
      "stateMutability": "view",
      "type": "function"
    },
    {
      "inputs": [],
      "name": "VOTE_STAKE_LIMIT",
      "outputs": [
        {
          "internalType": "uint256",
          "name": "",
          "type": "uint256"
        }
      ],
      "stateMutability": "view",
      "type": "function"
    },
    {
      "inputs": [
        {
          "internalType": "uint256",
          "name": "",
          "type": "uint256"
        }
      ],
      "name": "activePolls",
      "outputs": [
        {
          "internalType": "uint256",
          "name": "",
          "type": "uint256"
        }
      ],
      "stateMutability": "view",
      "type": "function"
    },
    {
      "inputs": [
        {
          "internalType": "address",
          "name": "",
          "type": "address"
        }
      ],
      "name": "voterReservations",
      "outputs": [
        {
          "internalType": "uint256",
          "name": "pollId",
          "type": "uint256"
        },
        {
          "internalType": "uint256",
          "name": "stake",
          "type": "uint256"
        }
      ],
      "stateMutability": "view",
      "type": "function"
    },
    {
      "inputs": [],
      "name": "getActivePolls",
      "outputs": [
        {
          "internalType": "uint256[]",
          "name": "",
          "type": "uint256[]"
        }
      ],
      "stateMutability": "view",
      "type": "function"
    },
    {
      "inputs": [
        {
          "internalType": "uint256",
          "name": "pollId",
          "type": "uint256"
        }
      ],
      "name": "addActivePoll",
      "outputs": [],
      "stateMutability": "nonpayable",
      "type": "function"
    },
    {
      "inputs": [
        {
          "internalType": "uint256",
          "name": "pollId",
          "type": "uint256"
        }
      ],
      "name": "removeActivePoll",
      "outputs": [],
      "stateMutability": "nonpayable",
      "type": "function"
    },
    {
      "inputs": [
        {
          "internalType": "string",
          "name": "url",
          "type": "string"
        }
      ],
      "name": "submit",
      "outputs": [],
      "stateMutability": "payable",
      "type": "function"
    },
    {
      "inputs": [],
      "name": "random",
      "outputs": [
        {
          "internalType": "uint256",
          "name": "",
          "type": "uint256"
        }
      ],
      "stateMutability": "view",
      "type": "function"
    },
    {
      "inputs": [],
      "name": "requestVote",
      "outputs": [],
      "stateMutability": "payable",
      "type": "function"
    },
    {
      "inputs": [
        {
          "internalType": "enum ASTRAEA.Outcome",
          "name": "belief",
          "type": "uint8"
        }
      ],
      "name": "vote",
      "outputs": [],
      "stateMutability": "nonpayable",
      "type": "function"
    },
    {
      "inputs": [
        {
          "internalType": "uint256",
          "name": "pollId",
          "type": "uint256"
        },
        {
          "internalType": "enum ASTRAEA.Outcome",
          "name": "belief",
          "type": "uint8"
        }
      ],
      "name": "certify",
      "outputs": [],
      "stateMutability": "payable",
      "type": "function"
    },
    {
      "inputs": [
        {
          "internalType": "uint256",
          "name": "poolId",
          "type": "uint256"
        }
      ],
      "name": "withdraw",
      "outputs": [],
      "stateMutability": "payable",
      "type": "function"
    },
    {
      "inputs": [
        {
          "internalType": "uint256",
          "name": "id",
          "type": "uint256"
        },
        {
          "internalType": "string",
          "name": "url",
          "type": "string"
        }
      ],
      "name": "emitPollClosed",
      "outputs": [],
      "stateMutability": "nonpayable",
      "type": "function"
    }
  ],
  "bytecode": "0x6080604052600060035560006004556000600555600a60065534801561002457600080fd5b50612253806100346000396000f3fe6080604052600436106100f35760003560e01c80637d66c0971161008a578063bb5404ef11610059578063bb5404ef1461030a578063d99a8dc314610326578063da1c0ee114610342578063edb39cdc1461036d576100f3565b80637d66c0971461023b57806386fea9e21461027857806395beacd5146102b6578063b3f98adc146102e1576100f3565b80635c42fc89116100c65780635c42fc89146101915780635ec01e4d146101ba57806363a9492f146101e55780637d48536d14610210576100f3565b80631c5d95c1146100f857806321c2476c146101235780632e1a7d4d1461014c57806359232a0914610168575b600080fd5b34801561010457600080fd5b5061010d610377565b60405161011a9190611fc9565b60405180910390f35b34801561012f57600080fd5b5061014a60048036038101906101459190611cdc565b61037c565b005b61016660048036038101906101619190611c77565b61040f565b005b34801561017457600080fd5b5061018f600480360381019061018a9190611c77565b610b06565b005b34801561019d57600080fd5b506101b860048036038101906101b39190611c77565b610bca565b005b3480156101c657600080fd5b506101cf610c13565b6040516101dc9190611fc9565b60405180910390f35b3480156101f157600080fd5b506101fa610c48565b6040516102079190611f2e565b60405180910390f35b34801561021c57600080fd5b50610225610ca0565b6040516102329190611fc9565b60405180910390f35b34801561024757600080fd5b50610262600480360381019061025d9190611c77565b610ca5565b60405161026f9190611fc9565b60405180910390f35b34801561028457600080fd5b5061029f600480360381019061029a9190611be4565b610cc6565b6040516102ad929190611fe4565b60405180910390f35b3480156102c257600080fd5b506102cb610cea565b6040516102d89190611fc9565b60405180910390f35b3480156102ed57600080fd5b5061030860048036038101906103039190611c0d565b610cef565b005b610324600480360381019061031f9190611ca0565b61160c565b005b610340600480360381019061033b9190611c36565b61189c565b005b34801561034e57600080fd5b50610357611a24565b6040516103649190611fc9565b60405180910390f35b610375611a29565b005b606481565b600073ffffffffffffffffffffffffffffffffffffffff16827f7cf84e937b660a86b8d03903abf94c2e2976b2273da8dfbef2d89b7ac560463e836040516103c49190611f87565b60405180910390a3817fe3df51d5fda0832a4528264045c49ae60a110a56a47fb243ff3bfd6333b0579560026001600060405161040393929190611f50565b60405180910390a25050565b60008060008381526020019081526020016000209050600015158160000160149054906101000a900460ff1615151461044757600080fd5b600060038081111561045557fe5b8260090160029054906101000a900460ff16600381111561047257fe5b141561050c578160040160003373ffffffffffffffffffffffffffffffffffffffff1673ffffffffffffffffffffffffffffffffffffffff168152602001908152602001600020600101548260040160003373ffffffffffffffffffffffffffffffffffffffff1673ffffffffffffffffffffffffffffffffffffffff1681526020019081526020016000206000015401810190506107a5565b6001600381111561051957fe5b8260090160029054906101000a900460ff16600381111561053657fe5b148015610587575060008260040160003373ffffffffffffffffffffffffffffffffffffffff1673ffffffffffffffffffffffffffffffffffffffff16815260200190815260200160002060000154115b156105ea5760c882600101548360040160003373ffffffffffffffffffffffffffffffffffffffff1673ffffffffffffffffffffffffffffffffffffffff16815260200190815260200160002060000154816105df57fe5b0402810190506107a4565b600060038111156105f757fe5b8260090160029054906101000a900460ff16600381111561061457fe5b148015610665575060008260040160003373ffffffffffffffffffffffffffffffffffffffff1673ffffffffffffffffffffffffffffffffffffffff16815260200190815260200160002060010154115b156106c85760c882600201548360040160003373ffffffffffffffffffffffffffffffffffffffff1673ffffffffffffffffffffffffffffffffffffffff16815260200190815260200160002060010154816106bd57fe5b0402810190506107a3565b600260038111156106d557fe5b8260090160029054906101000a900460ff1660038111156106f257fe5b148015610743575060008260040160003373ffffffffffffffffffffffffffffffffffffffff1673ffffffffffffffffffffffffffffffffffffffff16815260200190815260200160002060020154115b156107a25760c882600301548360040160003373ffffffffffffffffffffffffffffffffffffffff1673ffffffffffffffffffffffffffffffffffffffff168152602001908152602001600020600201548161079b57fe5b0402810190505b5b5b5b600160038111156107b257fe5b8260090160029054906101000a900460ff1660038111156107cf57fe5b148015610820575060008260080160003373ffffffffffffffffffffffffffffffffffffffff1673ffffffffffffffffffffffffffffffffffffffff16815260200190815260200160002060000154115b15610886578160080160003373ffffffffffffffffffffffffffffffffffffffff1673ffffffffffffffffffffffffffffffffffffffff16815260200190815260200160002060000154826005015483600a01548161087b57fe5b040281019050610a46565b6000600381111561089357fe5b8260090160029054906101000a900460ff1660038111156108b057fe5b148015610901575060008260080160003373ffffffffffffffffffffffffffffffffffffffff1673ffffffffffffffffffffffffffffffffffffffff16815260200190815260200160002060010154115b15610967578160080160003373ffffffffffffffffffffffffffffffffffffffff1673ffffffffffffffffffffffffffffffffffffffff16815260200190815260200160002060010154826006015483600a01548161095c57fe5b040281019050610a45565b6002600381111561097457fe5b8260090160029054906101000a900460ff16600381111561099157fe5b1480156109e2575060008260080160003373ffffffffffffffffffffffffffffffffffffffff1673ffffffffffffffffffffffffffffffffffffffff16815260200190815260200160002060010154115b15610a44578160080160003373ffffffffffffffffffffffffffffffffffffffff1673ffffffffffffffffffffffffffffffffffffffff16815260200190815260200160002060020154826007015483600a015481610a3d57fe5b0402810190505b5b5b6000811115610b0157600060603373ffffffffffffffffffffffffffffffffffffffff1683604051610a7790611edc565b60006040518083038185875af1925050503d8060008114610ab4576040519150601f19603f3d011682016040523d82523d6000602084013e610ab9565b606091505b509150915081610afe576040517f08c379a0000000000000000000000000000000000000000000000000000000008152600401610af590611fa9565b60405180910390fd5b50505b505050565b60006002600083815260200190815260200160002054905060008111610b2b57600080fd5b600180805490501115610ba55760018080805490500381548110610b4b57fe5b9060005260206000200154600180830381548110610b6557fe5b90600052602060002001819055508060026000600180850381548110610b8757fe5b90600052602060002001548152602001908152602001600020819055505b6001805480610bb057fe5b600190038181906000526020600020016000905590555050565b6001819080600181540180825580915050600190039060005260206000200160009091909190915055600180549050600260008381526020019081526020016000208190555050565b6000424433604051602001610c2a93929190611ef1565b6040516020818303038152906040528051906020012060001c905090565b60606001805480602002602001604051908101604052809291908181526020018280548015610c9657602002820191906000526020600020905b815481526020019060010190808311610c82575b5050505050905090565b60c881565b60018181548110610cb257fe5b906000526020600020016000915090505481565b60076020528060005260406000206000915090508060000154908060010154905082565b60c881565b6000600760003373ffffffffffffffffffffffffffffffffffffffff1673ffffffffffffffffffffffffffffffffffffffff1681526020019081526020016000209050600081600001541415610d4457600080fd5b6000806000836000015481526020019081526020016000209050600073ffffffffffffffffffffffffffffffffffffffff168160000160009054906101000a900473ffffffffffffffffffffffffffffffffffffffff1673ffffffffffffffffffffffffffffffffffffffff161415610dbc57600080fd5b600115158160000160149054906101000a900460ff16151514610dde57600080fd5b60016003811115610deb57fe5b836003811115610df757fe5b1415610e6e5781600101548160040160003373ffffffffffffffffffffffffffffffffffffffff1673ffffffffffffffffffffffffffffffffffffffff1681526020019081526020016000206000016000828254019250508190555081600101548160010160008282540192505081905550610f6c565b60006003811115610e7b57fe5b836003811115610e8757fe5b1415610efe5781600101548160040160003373ffffffffffffffffffffffffffffffffffffffff1673ffffffffffffffffffffffffffffffffffffffff1681526020019081526020016000206001016000828254019250508190555081600101548160020160008282540192505081905550610f6b565b81600101548160040160003373ffffffffffffffffffffffffffffffffffffffff1673ffffffffffffffffffffffffffffffffffffffff16815260200190815260200160002060020160008282540192505081905550816001015481600301600082825401925050819055505b5b60648160030154826002015483600101540101106115b55760008160000160146101000a81548160ff02191690831515021790555080600101548160020154111561100a578060030154816002015411610fde578060030154816002015410610fd6576003610fd9565b60025b610fe1565b60005b8160090160006101000a81548160ff0219169083600381111561100057fe5b02179055506110b2565b80600101548160020154101561107357806003015481600101541161104757806003015481600101541061103f576003611042565b60025b61104a565b60005b8160090160006101000a81548160ff0219169083600381111561106957fe5b02179055506110b1565b806001015481600301541161108957600361108c565b60025b8160090160006101000a81548160ff021916908360038111156110ab57fe5b02179055505b5b80600501548160060154111561111b5780600701548160060154116110ef5780600701548160060154106110e75760036110ea565b60025b6110f2565b60005b8160090160016101000a81548160ff0219169083600381111561111157fe5b02179055506111c3565b806005015481600601541015611184578060070154816005015411611158578060070154816005015410611150576003611153565b60025b61115b565b60005b8160090160016101000a81548160ff0219169083600381111561117a57fe5b02179055506111c2565b806005015481600701541161119a57600361119d565b60025b8160090160016101000a81548160ff021916908360038111156111bc57fe5b02179055505b5b8060090160019054906101000a900460ff1660038111156111e057fe5b8160090160009054906101000a900460ff1660038111156111fd57fe5b1461120957600361121c565b8060090160009054906101000a900460ff165b8160090160026101000a81548160ff0219169083600381111561123b57fe5b021790555060038081111561124c57fe5b8160090160029054906101000a900460ff16600381111561126957fe5b14156114545760c86003600082825401925050819055506001600381111561128d57fe5b8160090160019054906101000a900460ff1660038111156112aa57fe5b141561131b57600654600554816112bd57fe5b04600654600354816112cb57fe5b0401600460008282540192505081905550600654600354816112e957fe5b046003600082825403925050819055506006546005548161130657fe5b0460056000828254039250508190555061144f565b6000600381111561132857fe5b8160090160019054906101000a900460ff16600381111561134557fe5b14156113b6576006546005548161135857fe5b046006546004548161136657fe5b04016003600082825401925050819055506006546004548161138457fe5b04600460008282540392505081905550600654600554816113a157fe5b0460056000828254039250508190555061144e565b600260038111156113c357fe5b8160090160019054906101000a900460ff1660038111156113e057fe5b141561144d57600654600354816113f357fe5b046006546004548161140157fe5b04016005600082825401925050819055506006546004548161141f57fe5b046004600082825403925050819055506006546003548161143c57fe5b046003600082825403925050819055505b5b5b611534565b6001600381111561146157fe5b8160090160019054906101000a900460ff16600381111561147e57fe5b141561149f576006546003548161149157fe5b0481600a0181905550611533565b600060038111156114ac57fe5b8160090160019054906101000a900460ff1660038111156114c957fe5b14156114ea57600654600454816114dc57fe5b0481600a0181905550611532565b600260038111156114f757fe5b8160090160019054906101000a900460ff16600381111561151457fe5b1415611531576006546005548161152757fe5b0481600a01819055505b5b5b5b81600001547fe3df51d5fda0832a4528264045c49ae60a110a56a47fb243ff3bfd6333b057958260090160029054906101000a900460ff168360090160009054906101000a900460ff168460090160019054906101000a900460ff1660405161159f93929190611f50565b60405180910390a26115b48260000154610b06565b5b600760003373ffffffffffffffffffffffffffffffffffffffff1673ffffffffffffffffffffffffffffffffffffffff16815260200190815260200160002060008082016000905560018201600090555050505050565b600073ffffffffffffffffffffffffffffffffffffffff1660008084815260200190815260200160002060000160009054906101000a900473ffffffffffffffffffffffffffffffffffffffff1673ffffffffffffffffffffffffffffffffffffffff16141561167b57600080fd5b6001151560008084815260200190815260200160002060000160149054906101000a900460ff161515146116ae57600080fd5b60323410156116bc57600080fd5b600160038111156116c957fe5b8160038111156116d557fe5b1415611766573460008084815260200190815260200160002060080160003373ffffffffffffffffffffffffffffffffffffffff1673ffffffffffffffffffffffffffffffffffffffff168152602001908152602001600020600001600082825401925050819055503460008084815260200190815260200160002060050160008282540192505081905550611898565b6000600381111561177357fe5b81600381111561177f57fe5b1415611810573460008084815260200190815260200160002060080160003373ffffffffffffffffffffffffffffffffffffffff1673ffffffffffffffffffffffffffffffffffffffff168152602001908152602001600020600101600082825401925050819055503460008084815260200190815260200160002060060160008282540192505081905550611897565b3460008084815260200190815260200160002060080160003373ffffffffffffffffffffffffffffffffffffffff1673ffffffffffffffffffffffffffffffffffffffff1681526020019081526020016000206002016000828254019250508190555034600080848152602001908152602001600020600501600082825401925050819055505b5b5050565b60c83410156118aa57600080fd5b6000816040516020016118bd9190611ec5565b6040516020818303038152906040528051906020012060001c9050600073ffffffffffffffffffffffffffffffffffffffff1660008083815260200190815260200160002060000160009054906101000a900473ffffffffffffffffffffffffffffffffffffffff1673ffffffffffffffffffffffffffffffffffffffff161461194657600080fd5b3360008083815260200190815260200160002060000160006101000a81548173ffffffffffffffffffffffffffffffffffffffff021916908373ffffffffffffffffffffffffffffffffffffffff160217905550600160008083815260200190815260200160002060000160146101000a81548160ff0219169083151502179055506119d181610bca565b3373ffffffffffffffffffffffffffffffffffffffff16817f7cf84e937b660a86b8d03903abf94c2e2976b2273da8dfbef2d89b7ac560463e84604051611a189190611f87565b60405180910390a35050565b603281565b6000600760003373ffffffffffffffffffffffffffffffffffffffff1673ffffffffffffffffffffffffffffffffffffffff1681526020019081526020016000206000015414611a7857600080fd5b60c8341115611a8657600080fd5b6000600180549050611a96610c13565b81611a9d57fe5b069050600060018281548110611aaf57fe5b90600052602060002001549050611ac4611b37565b604051806040016040528083815260200134815250905080600760003373ffffffffffffffffffffffffffffffffffffffff1673ffffffffffffffffffffffffffffffffffffffff1681526020019081526020016000206000820151816000015560208201518160010155905050505050565b604051806040016040528060008152602001600081525090565b600081359050611b60816121df565b92915050565b600081359050611b75816121f6565b92915050565b600082601f830112611b8c57600080fd5b8135611b9f611b9a8261203a565b61200d565b91508082526020830160208301858383011115611bbb57600080fd5b611bc6838284612144565b50505092915050565b600081359050611bde81612206565b92915050565b600060208284031215611bf657600080fd5b6000611c0484828501611b51565b91505092915050565b600060208284031215611c1f57600080fd5b6000611c2d84828501611b66565b91505092915050565b600060208284031215611c4857600080fd5b600082013567ffffffffffffffff811115611c6257600080fd5b611c6e84828501611b7b565b91505092915050565b600060208284031215611c8957600080fd5b6000611c9784828501611bcf565b91505092915050565b60008060408385031215611cb357600080fd5b6000611cc185828601611bcf565b9250506020611cd285828601611b66565b9150509250929050565b60008060408385031215611cef57600080fd5b6000611cfd85828601611bcf565b925050602083013567ffffffffffffffff811115611d1a57600080fd5b611d2685828601611b7b565b9150509250929050565b6000611d3c8383611e90565b60208301905092915050565b611d59611d54826120e3565b612186565b82525050565b6000611d6a82612076565b611d748185612099565b9350611d7f83612066565b8060005b83811015611db0578151611d978882611d30565b9750611da28361208c565b925050600181019050611d83565b5085935050505092915050565b611dc681612132565b82525050565b6000611dd782612081565b611de181856120b5565b9350611df1818560208601612153565b611dfa816121b4565b840191505092915050565b6000611e1082612081565b611e1a81856120c6565b9350611e2a818560208601612153565b80840191505092915050565b6000611e436014836120b5565b91507f4661696c656420746f2073656e642045746865720000000000000000000000006000830152602082019050919050565b6000611e836000836120aa565b9150600082019050919050565b611e9981612128565b82525050565b611ea881612128565b82525050565b611ebf611eba82612128565b6121aa565b82525050565b6000611ed18284611e05565b915081905092915050565b6000611ee782611e76565b9150819050919050565b6000611efd8286611eae565b602082019150611f0d8285611eae565b602082019150611f1d8284611d48565b601482019150819050949350505050565b60006020820190508181036000830152611f488184611d5f565b905092915050565b6000606082019050611f656000830186611dbd565b611f726020830185611dbd565b611f7f6040830184611dbd565b949350505050565b60006020820190508181036000830152611fa18184611dcc565b905092915050565b60006020820190508181036000830152611fc281611e36565b9050919050565b6000602082019050611fde6000830184611e9f565b92915050565b6000604082019050611ff96000830185611e9f565b6120066020830184611e9f565b9392505050565b6000604051905081810181811067ffffffffffffffff8211171561203057600080fd5b8060405250919050565b600067ffffffffffffffff82111561205157600080fd5b601f19601f8301169050602081019050919050565b6000819050602082019050919050565b600081519050919050565b600081519050919050565b6000602082019050919050565b600082825260208201905092915050565b600081905092915050565b600082825260208201905092915050565b600081905092915050565b60006120dc82612108565b9050919050565b60006120ee82612108565b9050919050565b6000819050612103826121d2565b919050565b600073ffffffffffffffffffffffffffffffffffffffff82169050919050565b6000819050919050565b600061213d826120f5565b9050919050565b82818337600083830152505050565b60005b83811015612171578082015181840152602081019050612156565b83811115612180576000848401525b50505050565b600061219182612198565b9050919050565b60006121a3826121c5565b9050919050565b6000819050919050565b6000601f19601f8301169050919050565b60008160601b9050919050565b600481106121dc57fe5b50565b6121e8816120d1565b81146121f357600080fd5b50565b6004811061220357600080fd5b50565b61220f81612128565b811461221a57600080fd5b5056fea2646970667358221220816f037fbd42778d0f2e1548c475b9448e951231d8c1148f8afb060c6e68705764736f6c63430007000033",
  "source": "// SPDX-License-Identifier: GPL-3.0\r\npragma solidity >=0.7.0 <0.9.0;\r\npragma experimental ABIEncoderV2;\r\n\r\ncontract ASTRAEA {\r\n    \r\n    event PollCreated(uint256 indexed _id, address indexed _submitter, string _url); \r\n    event PollClosed(uint256 indexed _id, Outcome _gameOutcome, Outcome _votingOutcome, Outcome _certOutcome); \r\n\r\n    enum Outcome { FALSE, TRUE, OPINION, NO_DECISION }\r\n\r\n    struct Belief {\r\n        uint256 trueStake; \r\n        uint256 falseStake;\r\n        uint256 opinionStake; // add enhancement 7/01: amount of opinion stake for busters\r\n    }\r\n \r\n    struct Poll {\r\n        address submitter; \r\n        bool open;\r\n\r\n        uint256 totalTrueVoteStake; \r\n        uint256 totalFalseVoteStake; \r\n        uint256 totalOpinionVoteStake; // add enhancement 7/01: amount of opinion stake for busters\r\n        mapping(address => Belief) votes; \r\n\r\n        uint256 totalTrueCertStake;\r\n        uint256 totalFalseCertStake; \r\n        uint256 totalOpinionCertStake; // add enhancement 7/01: opinion stake for certifiers\r\n        mapping(address => Belief) certs; \r\n\r\n        // outcomes \r\n        Outcome votingOutcome; \r\n        Outcome certOutcome; \r\n        Outcome gameOutcome; \r\n\r\n        uint256 certReward; \r\n    }\r\n\r\n    // all polls \r\n    mapping(uint256 => Poll) polls; \r\n\r\n    // active polls\r\n    uint256[] public activePolls; \r\n    mapping(uint256 => uint256) pollToIndex; \r\n\r\n    function getActivePolls() public view returns(uint256[] memory) {\r\n        return activePolls; \r\n    }\r\n\r\n    function addActivePoll(uint256 pollId) public {\r\n        activePolls.push(pollId); \r\n        pollToIndex[pollId] = activePolls.length; // store the index+1 (to avoid problems since default for uint is 0)  \r\n    }\r\n\r\n    function removeActivePoll(uint256 pollId) public {\r\n        uint index = pollToIndex[pollId]; \r\n        require(index > 0); // otherwise means that the poll is not inside the activePolls array \r\n\r\n        // swap the last and the removed elements \r\n        if(activePolls.length > 1) {\r\n            activePolls[index-1] = activePolls[activePolls.length-1]; \r\n            pollToIndex[activePolls[index-1]] = index;  // store always the index+1\r\n        }\r\n        activePolls.pop(); // remove last element and update length \r\n    }\r\n\r\n    uint256 public constant MAX_VOTE_STAKE = 200; // this should be lower than VOTE_STAKE_LIMIT \r\n    uint256 public constant MIN_CERT_STAKE = 50; \r\n    uint256 public constant VOTE_STAKE_LIMIT = 100; \r\n    uint256 public constant SUBMISSION_FEE = 200; \r\n\r\n    uint256 trueRewardPool = 0; \r\n    uint256 falseRewardPool = 0; \r\n    uint256 opinionRewardPool = 0; // add enhancement 7/01: new pool in order to not penalize certifier in case of opinion\r\n    uint256 tetha = 10; \r\n\r\n    /** SUBMITTER **/ \r\n    function submit(string memory url) public payable { \r\n        // check minimum submission fee \r\n        require(msg.value >= SUBMISSION_FEE); \r\n\r\n        // check that the url has not been already sent     \r\n        uint256 hash = uint(keccak256(abi.encodePacked(url)));\r\n        require(polls[hash].submitter == address(0)); \r\n\r\n        // set the poll to active status \r\n        polls[hash].submitter = msg.sender; \r\n        polls[hash].open = true; \r\n\r\n        // add poll to the active polls \r\n        addActivePoll(hash); \r\n\r\n        emit PollCreated(hash, msg.sender, url); \r\n    }\r\n\r\n    /** VOTER **/ \r\n    function random() public view returns(uint256) {\r\n        return uint256(keccak256(abi.encodePacked(block.timestamp, block.difficulty, msg.sender)));  \r\n    }\r\n\r\n    struct VoteReservation {\r\n        uint256 pollId; \r\n        uint256 stake; \r\n    }\r\n    mapping(address => VoteReservation) public voterReservations;  \r\n    function requestVote() public payable {\r\n        // check the voter has not already request an id (assume no poll has id == 0) \r\n        require(voterReservations[msg.sender].pollId == 0); \r\n\r\n        // check max voting stake \r\n        require(msg.value <= MAX_VOTE_STAKE); \r\n        \r\n        // get id of random poll \r\n        uint randomIndex = random() % activePolls.length;  \r\n        uint256 randomId = activePolls[randomIndex]; \r\n\r\n        // store the reservation \r\n        VoteReservation memory voteReservation = VoteReservation({pollId: randomId, stake: msg.value});\r\n        voterReservations[msg.sender] = voteReservation; \r\n    }\r\n\r\n    function vote(Outcome belief) public {\r\n        // check that the voter has previously request a reservation \r\n        VoteReservation storage reservation = voterReservations[msg.sender]; \r\n        require(reservation.pollId != 0); \r\n\r\n        Poll storage currentPoll = polls[reservation.pollId];  \r\n\r\n        // check that the poll actually exist and its open \r\n        require(currentPoll.submitter != address(0));\r\n        require(currentPoll.open == true); \r\n\r\n        // check maximum voting stake ??? \r\n        // require(reservation.stake + polls[reservation.pollId].votes[msg.sender] <= MAX_VOTE_STAKE);  \r\n        \r\n        if(belief == Outcome.TRUE) {\r\n            currentPoll.votes[msg.sender].trueStake += reservation.stake; \r\n            currentPoll.totalTrueVoteStake += reservation.stake; \r\n        } else if(belief == Outcome.FALSE){\r\n            currentPoll.votes[msg.sender].falseStake += reservation.stake; \r\n            currentPoll.totalFalseVoteStake += reservation.stake; \r\n        } else {\r\n            currentPoll.votes[msg.sender].opinionStake += reservation.stake; \r\n            currentPoll.totalOpinionVoteStake += reservation.stake; \r\n        }      \r\n\r\n        // Termination condition \r\n        if(currentPoll.totalTrueVoteStake + currentPoll.totalFalseVoteStake + currentPoll.totalOpinionVoteStake >= VOTE_STAKE_LIMIT) {\r\n            currentPoll.open = false; \r\n            \r\n            // set outcomes \r\n            //______________________\r\n            //|    | T   F   O   U  |\r\n            //|----|----------------|\r\n            //|  T | U   U   U   U  |\r\n            //|  F | U   F   U   U  |\r\n            //|  O | U   U   O   U  |\r\n            //|  U | U   U   U   U  |\r\n            //|____|________________|\r\n\r\n            //outcome from busters\r\n            if(currentPoll.totalFalseVoteStake > currentPoll.totalTrueVoteStake){ // F > T\r\n                currentPoll.votingOutcome = currentPoll.totalFalseVoteStake > currentPoll.totalOpinionVoteStake ? Outcome.FALSE : // T < F > O\r\n                currentPoll.totalFalseVoteStake < currentPoll.totalOpinionVoteStake ? Outcome.OPINION : Outcome.NO_DECISION; // O > F > T : F == O > T\r\n            }\r\n            else if(currentPoll.totalFalseVoteStake < currentPoll.totalTrueVoteStake){ // T > F\r\n                currentPoll.votingOutcome = currentPoll.totalTrueVoteStake > currentPoll.totalOpinionVoteStake ? Outcome.FALSE : // F < T > O\r\n                currentPoll.totalTrueVoteStake < currentPoll.totalOpinionVoteStake ? Outcome.OPINION : Outcome.NO_DECISION; // O > T > F : T == O > F\r\n            }\r\n            else\r\n                currentPoll.votingOutcome = currentPoll.totalOpinionVoteStake > currentPoll.totalTrueVoteStake ? Outcome.OPINION : Outcome.NO_DECISION; // T == F < O : T == F >= O \r\n\r\n            // outcome from experts (same of busters)\r\n            if(currentPoll.totalFalseCertStake > currentPoll.totalTrueCertStake){ \r\n                currentPoll.certOutcome = currentPoll.totalFalseCertStake > currentPoll.totalOpinionCertStake ? Outcome.FALSE :\r\n                currentPoll.totalFalseCertStake < currentPoll.totalOpinionCertStake ? Outcome.OPINION : Outcome.NO_DECISION;\r\n            }\r\n            else if(currentPoll.totalFalseCertStake < currentPoll.totalTrueCertStake){\r\n                currentPoll.certOutcome = currentPoll.totalTrueCertStake > currentPoll.totalOpinionCertStake ? Outcome.FALSE :\r\n                currentPoll.totalTrueCertStake < currentPoll.totalOpinionCertStake ? Outcome.OPINION : Outcome.NO_DECISION;\r\n            }\r\n            else\r\n                currentPoll.certOutcome = currentPoll.totalOpinionCertStake > currentPoll.totalTrueCertStake ? Outcome.OPINION : Outcome.NO_DECISION;\r\n            \r\n            currentPoll.gameOutcome = currentPoll.votingOutcome == currentPoll.certOutcome ? \r\n                currentPoll.votingOutcome : Outcome.NO_DECISION; \r\n\r\n            if(currentPoll.gameOutcome == Outcome.NO_DECISION) {\r\n                // if no decision is taken, the submission fee goes to the reward pools \r\n                trueRewardPool += SUBMISSION_FEE; \r\n\r\n                // reward pools swap\r\n                if(currentPoll.certOutcome == Outcome.TRUE) {\r\n                    falseRewardPool += trueRewardPool / tetha + opinionRewardPool / tetha; \r\n                    trueRewardPool -= trueRewardPool / tetha; // ?? \r\n                    opinionRewardPool -= opinionRewardPool / tetha; // ??\r\n                } else if(currentPoll.certOutcome == Outcome.FALSE) {\r\n                    trueRewardPool += falseRewardPool / tetha + opinionRewardPool / tetha; \r\n                    falseRewardPool -= falseRewardPool / tetha; // ??\r\n                    opinionRewardPool -= opinionRewardPool / tetha; // ??\r\n                } else if(currentPoll.certOutcome == Outcome.OPINION) {\r\n                    opinionRewardPool += falseRewardPool / tetha + trueRewardPool / tetha; \r\n                    falseRewardPool -= falseRewardPool / tetha; // ??\r\n                    trueRewardPool -= trueRewardPool / tetha; // ??\r\n                }\r\n            } else {\r\n                // save the reward to give to the certifiers \r\n                if(currentPoll.certOutcome == Outcome.TRUE) {\r\n                    currentPoll.certReward = trueRewardPool / tetha; \r\n                } else if(currentPoll.certOutcome == Outcome.FALSE) {\r\n                    currentPoll.certReward = falseRewardPool / tetha; \r\n                } else if(currentPoll.certOutcome == Outcome.OPINION){\r\n                    currentPoll.certReward = opinionRewardPool / tetha; \r\n                }\r\n            }\r\n        \r\n            // emit closing event \r\n            emit PollClosed(reservation.pollId, currentPoll.gameOutcome, currentPoll.votingOutcome, currentPoll.certOutcome); \r\n\r\n            // remove poll from activePolls \r\n            removeActivePoll(reservation.pollId); \r\n        }\r\n\r\n        // delete reservation (all values are set to 0 or default) \r\n        delete voterReservations[msg.sender]; \r\n    }\r\n\r\n    /** CERTIFIER **/ \r\n    function certify(uint256 pollId, Outcome belief) public payable {\r\n        // check that the poll actually exist and its open \r\n        require(polls[pollId].submitter != address(0));\r\n        require(polls[pollId].open == true); \r\n\r\n        // check min voting stake \r\n        require(msg.value >= MIN_CERT_STAKE);  \r\n        \r\n        if(belief == Outcome.TRUE) {\r\n            polls[pollId].certs[msg.sender].trueStake += msg.value; \r\n            polls[pollId].totalTrueCertStake += msg.value; \r\n        } else if(belief == Outcome.FALSE){\r\n            polls[pollId].certs[msg.sender].falseStake += msg.value; \r\n            polls[pollId].totalFalseCertStake += msg.value; \r\n        } else{\r\n            polls[pollId].certs[msg.sender].opinionStake += msg.value;\r\n            polls[pollId].totalTrueCertStake += msg.value; \r\n        }\r\n     \r\n    }\r\n\r\n    function withdraw(uint256 poolId) public payable{\r\n        Poll storage currentPoll = polls[poolId]; \r\n        require(currentPoll.open == false); \r\n\r\n        uint256 reward = 0; \r\n    \r\n        // check votes \r\n        if(currentPoll.gameOutcome == Outcome.NO_DECISION) \r\n            reward += currentPoll.votes[msg.sender].trueStake + currentPoll.votes[msg.sender].falseStake; \r\n        else if(currentPoll.gameOutcome == Outcome.TRUE && currentPoll.votes[msg.sender].trueStake > 0)\r\n            reward += currentPoll.votes[msg.sender].trueStake / currentPoll.totalTrueVoteStake * SUBMISSION_FEE; \r\n        else if(currentPoll.gameOutcome == Outcome.FALSE && currentPoll.votes[msg.sender].falseStake > 0)\r\n            reward += currentPoll.votes[msg.sender].falseStake / currentPoll.totalFalseVoteStake * SUBMISSION_FEE; \r\n        else if(currentPoll.gameOutcome == Outcome.OPINION && currentPoll.votes[msg.sender].opinionStake > 0)\r\n            reward += currentPoll.votes[msg.sender].opinionStake / currentPoll.totalOpinionVoteStake * SUBMISSION_FEE; \r\n\r\n        // check certs \r\n        if(currentPoll.gameOutcome == Outcome.TRUE && currentPoll.certs[msg.sender].trueStake > 0)\r\n            reward += currentPoll.certReward / currentPoll.totalTrueCertStake * currentPoll.certs[msg.sender].trueStake; \r\n        else if (currentPoll.gameOutcome == Outcome.FALSE && currentPoll.certs[msg.sender].falseStake > 0)\r\n            reward += currentPoll.certReward / currentPoll.totalFalseCertStake * currentPoll.certs[msg.sender].falseStake;         \r\n        else if (currentPoll.gameOutcome == Outcome.OPINION && currentPoll.certs[msg.sender].falseStake > 0)\r\n            reward += currentPoll.certReward / currentPoll.totalOpinionCertStake * currentPoll.certs[msg.sender].opinionStake;   \r\n\r\n        // send reward\r\n        if(reward > 0) {\r\n            (bool sent, bytes memory data) = msg.sender.call{value: reward}(\"\");\r\n            require(sent, \"Failed to send Ether\");\r\n        }\r\n    }   \r\n\t\r\n    // DEBUG FUNCTION \r\n\tfunction emitPollClosed(uint256 id, string memory url) public {\r\n\t\temit PollCreated(id, address(0x0), url); \r\n\t\temit PollClosed(id, Outcome.OPINION, Outcome.TRUE, Outcome.FALSE); \r\n\t}\r\n}\r\n",
  "sourcePath": "C:\\Users\\Egon\\Desktop\\CNS\\FakeBuster\\contracts\\astrea.sol",
  "compiler": {
    "name": "solc",
    "version": "0.7.0+commit.9e61f92b.Emscripten.clang",
    "optimizer": false,
    "runs": 200
  },
  "schemaVersion": "2.3.5",
  "updatedAt": "2022-02-04T13:43:37.164Z"
}