{
  "contractName": "ASTRAEA",
  "abi": [
    {
      "anonymous": false,
      "inputs": [
        {
          "indexed": true,
          "internalType": "uint256",
          "name": "_id",
          "type": "uint256"
        },
        {
          "indexed": false,
          "internalType": "enum ASTRAEA.Outcome",
          "name": "_gameOutcome",
          "type": "uint8"
        },
        {
          "indexed": false,
          "internalType": "enum ASTRAEA.Outcome",
          "name": "_votingOutcome",
          "type": "uint8"
        },
        {
          "indexed": false,
          "internalType": "enum ASTRAEA.Outcome",
          "name": "_certOutcome",
          "type": "uint8"
        }
      ],
      "name": "PollClosed",
      "type": "event"
    },
    {
      "anonymous": false,
      "inputs": [
        {
          "indexed": true,
          "internalType": "uint256",
          "name": "_id",
          "type": "uint256"
        },
        {
          "indexed": true,
          "internalType": "address",
          "name": "_submitter",
          "type": "address"
        },
        {
          "indexed": false,
          "internalType": "string",
          "name": "_url",
          "type": "string"
        }
      ],
      "name": "PollCreated",
      "type": "event"
    },
    {
      "inputs": [],
      "name": "MAX_VOTE_STAKE",
      "outputs": [
        {
          "internalType": "uint256",
          "name": "",
          "type": "uint256"
        }
      ],
      "stateMutability": "view",
      "type": "function"
    },
    {
      "inputs": [],
      "name": "MIN_CERT_STAKE",
      "outputs": [
        {
          "internalType": "uint256",
          "name": "",
          "type": "uint256"
        }
      ],
      "stateMutability": "view",
      "type": "function"
    },
    {
      "inputs": [],
      "name": "SUBMISSION_FEE",
      "outputs": [
        {
          "internalType": "uint256",
          "name": "",
          "type": "uint256"
        }
      ],
      "stateMutability": "view",
      "type": "function"
    },
    {
      "inputs": [],
      "name": "VOTE_STAKE_LIMIT",
      "outputs": [
        {
          "internalType": "uint256",
          "name": "",
          "type": "uint256"
        }
      ],
      "stateMutability": "view",
      "type": "function"
    },
    {
      "inputs": [
        {
          "internalType": "uint256",
          "name": "",
          "type": "uint256"
        }
      ],
      "name": "activePolls",
      "outputs": [
        {
          "internalType": "uint256",
          "name": "",
          "type": "uint256"
        }
      ],
      "stateMutability": "view",
      "type": "function"
    },
    {
      "inputs": [
        {
          "internalType": "address",
          "name": "",
          "type": "address"
        }
      ],
      "name": "voterReservations",
      "outputs": [
        {
          "internalType": "uint256",
          "name": "pollId",
          "type": "uint256"
        },
        {
          "internalType": "uint256",
          "name": "stake",
          "type": "uint256"
        }
      ],
      "stateMutability": "view",
      "type": "function"
    },
    {
      "inputs": [],
      "name": "getActivePolls",
      "outputs": [
        {
          "internalType": "uint256[]",
          "name": "",
          "type": "uint256[]"
        }
      ],
      "stateMutability": "view",
      "type": "function"
    },
    {
      "inputs": [
        {
          "internalType": "uint256",
          "name": "pollId",
          "type": "uint256"
        }
      ],
      "name": "addActivePoll",
      "outputs": [],
      "stateMutability": "nonpayable",
      "type": "function"
    },
    {
      "inputs": [
        {
          "internalType": "uint256",
          "name": "pollId",
          "type": "uint256"
        }
      ],
      "name": "removeActivePoll",
      "outputs": [],
      "stateMutability": "nonpayable",
      "type": "function"
    },
    {
      "inputs": [
        {
          "internalType": "string",
          "name": "url",
          "type": "string"
        }
      ],
      "name": "submit",
      "outputs": [],
      "stateMutability": "payable",
      "type": "function"
    },
    {
      "inputs": [],
      "name": "random",
      "outputs": [
        {
          "internalType": "uint256",
          "name": "",
          "type": "uint256"
        }
      ],
      "stateMutability": "view",
      "type": "function"
    },
    {
      "inputs": [],
      "name": "requestVote",
      "outputs": [],
      "stateMutability": "payable",
      "type": "function"
    },
    {
      "inputs": [
        {
          "internalType": "enum ASTRAEA.Outcome",
          "name": "belief",
          "type": "uint8"
        }
      ],
      "name": "vote",
      "outputs": [],
      "stateMutability": "nonpayable",
      "type": "function"
    },
    {
      "inputs": [
        {
          "internalType": "uint256",
          "name": "pollId",
          "type": "uint256"
        },
        {
          "internalType": "enum ASTRAEA.Outcome",
          "name": "belief",
          "type": "uint8"
        }
      ],
      "name": "certify",
      "outputs": [],
      "stateMutability": "payable",
      "type": "function"
    },
    {
      "inputs": [
        {
          "internalType": "uint256",
          "name": "poolId",
          "type": "uint256"
        }
      ],
      "name": "withdraw",
      "outputs": [],
      "stateMutability": "payable",
      "type": "function"
    }
  ],
  "bytecode": "0x6080604052600060035560006004556000600555600a60065534801561002457600080fd5b506122e4806100346000396000f3fe6080604052600436106100e85760003560e01c80637d66c0971161008a578063bb5404ef11610059578063bb5404ef146102d6578063d99a8dc3146102f2578063da1c0ee11461030e578063edb39cdc14610339576100e8565b80637d66c0971461020757806386fea9e21461024457806395beacd514610282578063b3f98adc146102ad576100e8565b80635c42fc89116100c65780635c42fc891461015d5780635ec01e4d1461018657806363a9492f146101b15780637d48536d146101dc576100e8565b80631c5d95c1146100ed5780632e1a7d4d1461011857806359232a0914610134575b600080fd5b3480156100f957600080fd5b50610102610343565b60405161010f9190612065565b60405180910390f35b610132600480360381019061012d9190611d96565b61034f565b005b34801561014057600080fd5b5061015b60048036038101906101569190611d96565b610c0e565b005b34801561016957600080fd5b50610184600480360381019061017f9190611d96565b610cd2565b005b34801561019257600080fd5b5061019b610d1b565b6040516101a89190612065565b60405180910390f35b3480156101bd57600080fd5b506101c6610d50565b6040516101d39190611fca565b60405180910390f35b3480156101e857600080fd5b506101f1610da8565b6040516101fe9190612065565b60405180910390f35b34801561021357600080fd5b5061022e60048036038101906102299190611d96565b610db3565b60405161023b9190612065565b60405180910390f35b34801561025057600080fd5b5061026b60048036038101906102669190611d03565b610dd4565b604051610279929190612080565b60405180910390f35b34801561028e57600080fd5b50610297610df8565b6040516102a49190612065565b60405180910390f35b3480156102b957600080fd5b506102d460048036038101906102cf9190611d2c565b610e03565b005b6102f060048036038101906102eb9190611dbf565b611711565b005b61030c60048036038101906103079190611d55565b6119a8565b005b34801561031a57600080fd5b50610323611b36565b6040516103309190612065565b60405180910390f35b610341611b42565b005b6704064976a8dd000081565b60008060008381526020019081526020016000209050600015158160000160149054906101000a900460ff161515146103bd576040517f08c379a00000000000000000000000000000000000000000000000000000000081526004016103b490612045565b60405180910390fd5b60006003808111156103cb57fe5b8260090160029054906101000a900460ff1660038111156103e857fe5b14156104c8578160040160003373ffffffffffffffffffffffffffffffffffffffff1673ffffffffffffffffffffffffffffffffffffffff168152602001908152602001600020600101548260040160003373ffffffffffffffffffffffffffffffffffffffff1673ffffffffffffffffffffffffffffffffffffffff168152602001908152602001600020600201548360040160003373ffffffffffffffffffffffffffffffffffffffff1673ffffffffffffffffffffffffffffffffffffffff16815260200190815260200160002060000154010181019050610845565b600160038111156104d557fe5b8260090160029054906101000a900460ff1660038111156104f257fe5b148015610543575060008260040160003373ffffffffffffffffffffffffffffffffffffffff1673ffffffffffffffffffffffffffffffffffffffff16815260200190815260200160002060000154115b156105f257816001015466470de4df8200008360040160003373ffffffffffffffffffffffffffffffffffffffff1673ffffffffffffffffffffffffffffffffffffffff1681526020019081526020016000206000015402816105a257fe5b048260040160003373ffffffffffffffffffffffffffffffffffffffff1673ffffffffffffffffffffffffffffffffffffffff168152602001908152602001600020600001540181019050610844565b600060038111156105ff57fe5b8260090160029054906101000a900460ff16600381111561061c57fe5b14801561066d575060008260040160003373ffffffffffffffffffffffffffffffffffffffff1673ffffffffffffffffffffffffffffffffffffffff16815260200190815260200160002060010154115b1561071c57816002015466470de4df8200008360040160003373ffffffffffffffffffffffffffffffffffffffff1673ffffffffffffffffffffffffffffffffffffffff1681526020019081526020016000206001015402816106cc57fe5b048260040160003373ffffffffffffffffffffffffffffffffffffffff1673ffffffffffffffffffffffffffffffffffffffff168152602001908152602001600020600101540181019050610843565b6002600381111561072957fe5b8260090160029054906101000a900460ff16600381111561074657fe5b148015610797575060008260040160003373ffffffffffffffffffffffffffffffffffffffff1673ffffffffffffffffffffffffffffffffffffffff16815260200190815260200160002060020154115b1561084257816003015466470de4df8200008360040160003373ffffffffffffffffffffffffffffffffffffffff1673ffffffffffffffffffffffffffffffffffffffff1681526020019081526020016000206002015402816107f657fe5b048260040160003373ffffffffffffffffffffffffffffffffffffffff1673ffffffffffffffffffffffffffffffffffffffff1681526020019081526020016000206002015401810190505b5b5b5b6001600381111561085257fe5b8260090160029054906101000a900460ff16600381111561086f57fe5b1480156108c0575060008260080160003373ffffffffffffffffffffffffffffffffffffffff1673ffffffffffffffffffffffffffffffffffffffff16815260200190815260200160002060000154115b1561096c5781600501548260080160003373ffffffffffffffffffffffffffffffffffffffff1673ffffffffffffffffffffffffffffffffffffffff1681526020019081526020016000206000015483600a0154028161091c57fe5b048260080160003373ffffffffffffffffffffffffffffffffffffffff1673ffffffffffffffffffffffffffffffffffffffff168152602001908152602001600020600001540181019050610bb8565b6000600381111561097957fe5b8260090160029054906101000a900460ff16600381111561099657fe5b1480156109e7575060008260080160003373ffffffffffffffffffffffffffffffffffffffff1673ffffffffffffffffffffffffffffffffffffffff16815260200190815260200160002060010154115b15610a935781600601548260080160003373ffffffffffffffffffffffffffffffffffffffff1673ffffffffffffffffffffffffffffffffffffffff1681526020019081526020016000206001015483600a01540281610a4357fe5b048260080160003373ffffffffffffffffffffffffffffffffffffffff1673ffffffffffffffffffffffffffffffffffffffff168152602001908152602001600020600101540181019050610bb7565b60026003811115610aa057fe5b8260090160029054906101000a900460ff166003811115610abd57fe5b148015610b0e575060008260080160003373ffffffffffffffffffffffffffffffffffffffff1673ffffffffffffffffffffffffffffffffffffffff16815260200190815260200160002060010154115b15610bb65781600701548260080160003373ffffffffffffffffffffffffffffffffffffffff1673ffffffffffffffffffffffffffffffffffffffff1681526020019081526020016000206002015483600a01540281610b6a57fe5b048260080160003373ffffffffffffffffffffffffffffffffffffffff1673ffffffffffffffffffffffffffffffffffffffff1681526020019081526020016000206002015401810190505b5b5b6000811115610c09573373ffffffffffffffffffffffffffffffffffffffff166108fc829081150290604051600060405180830381858888f19350505050158015610c07573d6000803e3d6000fd5b505b505050565b60006002600083815260200190815260200160002054905060008111610c3357600080fd5b600180805490501115610cad5760018080805490500381548110610c5357fe5b9060005260206000200154600180830381548110610c6d57fe5b90600052602060002001819055508060026000600180850381548110610c8f57fe5b90600052602060002001548152602001908152602001600020819055505b6001805480610cb857fe5b600190038181906000526020600020016000905590555050565b6001819080600181540180825580915050600190039060005260206000200160009091909190915055600180549050600260008381526020019081526020016000208190555050565b6000424433604051602001610d3293929190611f8d565b6040516020818303038152906040528051906020012060001c905090565b60606001805480602002602001604051908101604052809291908181526020018280548015610d9e57602002820191906000526020600020905b815481526020019060010190808311610d8a575b5050505050905090565b66470de4df82000081565b60018181548110610dc057fe5b906000526020600020016000915090505481565b60076020528060005260406000206000915090508060000154908060010154905082565b662386f26fc1000081565b6000600760003373ffffffffffffffffffffffffffffffffffffffff1673ffffffffffffffffffffffffffffffffffffffff1681526020019081526020016000209050600081600001541415610e5857600080fd5b6000806000836000015481526020019081526020016000209050600073ffffffffffffffffffffffffffffffffffffffff168160000160009054906101000a900473ffffffffffffffffffffffffffffffffffffffff1673ffffffffffffffffffffffffffffffffffffffff161415610ed057600080fd5b600115158160000160149054906101000a900460ff16151514610ef257600080fd5b60016003811115610eff57fe5b836003811115610f0b57fe5b1415610f825781600101548160040160003373ffffffffffffffffffffffffffffffffffffffff1673ffffffffffffffffffffffffffffffffffffffff1681526020019081526020016000206000016000828254019250508190555081600101548160010160008282540192505081905550611080565b60006003811115610f8f57fe5b836003811115610f9b57fe5b14156110125781600101548160040160003373ffffffffffffffffffffffffffffffffffffffff1673ffffffffffffffffffffffffffffffffffffffff168152602001908152602001600020600101600082825401925050819055508160010154816002016000828254019250508190555061107f565b81600101548160040160003373ffffffffffffffffffffffffffffffffffffffff1673ffffffffffffffffffffffffffffffffffffffff16815260200190815260200160002060020160008282540192505081905550816001015481600301600082825401925050819055505b5b6704064976a8dd00008160030154826002015483600101540101106116ba5760008160000160146101000a81548160ff0219169083151502179055508060010154816002015411156111255780600301548160020154116110f95780600301548160020154106110f15760036110f4565b60025b6110fc565b60005b8160090160006101000a81548160ff0219169083600381111561111b57fe5b02179055506111cd565b80600101548160020154101561118e57806003015481600101541161116257806003015481600101541061115a57600361115d565b60025b611165565b60015b8160090160006101000a81548160ff0219169083600381111561118457fe5b02179055506111cc565b80600101548160030154116111a45760036111a7565b60025b8160090160006101000a81548160ff021916908360038111156111c657fe5b02179055505b5b80600501548160060154111561123657806007015481600601541161120a578060070154816006015410611202576003611205565b60025b61120d565b60005b8160090160016101000a81548160ff0219169083600381111561122c57fe5b02179055506112de565b80600501548160060154101561129f57806007015481600501541161127357806007015481600501541061126b57600361126e565b60025b611276565b60015b8160090160016101000a81548160ff0219169083600381111561129557fe5b02179055506112dd565b80600501548160070154116112b55760036112b8565b60025b8160090160016101000a81548160ff021916908360038111156112d757fe5b02179055505b5b8060090160019054906101000a900460ff1660038111156112fb57fe5b8160090160009054906101000a900460ff16600381111561131857fe5b14611324576003611337565b8060090160009054906101000a900460ff165b8160090160026101000a81548160ff0219169083600381111561135657fe5b021790555060038081111561136757fe5b8160090160029054906101000a900460ff16600381111561138457fe5b14156115595760038081111561139657fe5b8160090160019054906101000a900460ff1660038111156113b357fe5b141561142157600366470de4df820000816113ca57fe5b04600360008282540192505081905550600366470de4df820000816113eb57fe5b04600460008282540192505081905550600366470de4df8200008161140c57fe5b04600560008282540192505081905550611554565b6001600381111561142e57fe5b8160090160019054906101000a900460ff16600381111561144b57fe5b141561149857600266470de4df8200008161146257fe5b04600460008282540192505081905550600266470de4df8200008161148357fe5b04600560008282540192505081905550611553565b600060038111156114a557fe5b8160090160019054906101000a900460ff1660038111156114c257fe5b141561150f57600266470de4df820000816114d957fe5b04600360008282540192505081905550600266470de4df820000816114fa57fe5b04600560008282540192505081905550611552565b600266470de4df8200008161152057fe5b04600360008282540192505081905550600266470de4df8200008161154157fe5b046004600082825401925050819055505b5b5b611639565b6001600381111561156657fe5b8160090160019054906101000a900460ff16600381111561158357fe5b14156115a4576006546003548161159657fe5b0481600a0181905550611638565b600060038111156115b157fe5b8160090160019054906101000a900460ff1660038111156115ce57fe5b14156115ef57600654600454816115e157fe5b0481600a0181905550611637565b600260038111156115fc57fe5b8160090160019054906101000a900460ff16600381111561161957fe5b1415611636576006546005548161162c57fe5b0481600a01819055505b5b5b5b81600001547fe3df51d5fda0832a4528264045c49ae60a110a56a47fb243ff3bfd6333b057958260090160029054906101000a900460ff168360090160009054906101000a900460ff168460090160019054906101000a900460ff166040516116a493929190611fec565b60405180910390a26116b98260000154610c0e565b5b600760003373ffffffffffffffffffffffffffffffffffffffff1673ffffffffffffffffffffffffffffffffffffffff16815260200190815260200160002060008082016000905560018201600090555050505050565b600073ffffffffffffffffffffffffffffffffffffffff1660008084815260200190815260200160002060000160009054906101000a900473ffffffffffffffffffffffffffffffffffffffff1673ffffffffffffffffffffffffffffffffffffffff16141561178057600080fd5b6001151560008084815260200190815260200160002060000160149054906101000a900460ff161515146117b357600080fd5b67016345785d8a00003410156117c857600080fd5b600160038111156117d557fe5b8160038111156117e157fe5b1415611872573460008084815260200190815260200160002060080160003373ffffffffffffffffffffffffffffffffffffffff1673ffffffffffffffffffffffffffffffffffffffff1681526020019081526020016000206000016000828254019250508190555034600080848152602001908152602001600020600501600082825401925050819055506119a4565b6000600381111561187f57fe5b81600381111561188b57fe5b141561191c573460008084815260200190815260200160002060080160003373ffffffffffffffffffffffffffffffffffffffff1673ffffffffffffffffffffffffffffffffffffffff1681526020019081526020016000206001016000828254019250508190555034600080848152602001908152602001600020600601600082825401925050819055506119a3565b3460008084815260200190815260200160002060080160003373ffffffffffffffffffffffffffffffffffffffff1673ffffffffffffffffffffffffffffffffffffffff1681526020019081526020016000206002016000828254019250508190555034600080848152602001908152602001600020600701600082825401925050819055505b5b5050565b66470de4df8200003410156119bc57600080fd5b6000816040516020016119cf9190611f76565b6040516020818303038152906040528051906020012060001c9050600073ffffffffffffffffffffffffffffffffffffffff1660008083815260200190815260200160002060000160009054906101000a900473ffffffffffffffffffffffffffffffffffffffff1673ffffffffffffffffffffffffffffffffffffffff1614611a5857600080fd5b3360008083815260200190815260200160002060000160006101000a81548173ffffffffffffffffffffffffffffffffffffffff021916908373ffffffffffffffffffffffffffffffffffffffff160217905550600160008083815260200190815260200160002060000160146101000a81548160ff021916908315150217905550611ae381610cd2565b3373ffffffffffffffffffffffffffffffffffffffff16817f7cf84e937b660a86b8d03903abf94c2e2976b2273da8dfbef2d89b7ac560463e84604051611b2a9190612023565b60405180910390a35050565b67016345785d8a000081565b6000600760003373ffffffffffffffffffffffffffffffffffffffff1673ffffffffffffffffffffffffffffffffffffffff1681526020019081526020016000206000015414611b9157600080fd5b662386f26fc10000341115611ba557600080fd5b6000600180549050611bb5610d1b565b81611bbc57fe5b069050600060018281548110611bce57fe5b90600052602060002001549050611be3611c56565b604051806040016040528083815260200134815250905080600760003373ffffffffffffffffffffffffffffffffffffffff1673ffffffffffffffffffffffffffffffffffffffff1681526020019081526020016000206000820151816000015560208201518160010155905050505050565b604051806040016040528060008152602001600081525090565b600081359050611c7f81612270565b92915050565b600081359050611c9481612287565b92915050565b600082601f830112611cab57600080fd5b8135611cbe611cb9826120d6565b6120a9565b91508082526020830160208301858383011115611cda57600080fd5b611ce58382846121d5565b50505092915050565b600081359050611cfd81612297565b92915050565b600060208284031215611d1557600080fd5b6000611d2384828501611c70565b91505092915050565b600060208284031215611d3e57600080fd5b6000611d4c84828501611c85565b91505092915050565b600060208284031215611d6757600080fd5b600082013567ffffffffffffffff811115611d8157600080fd5b611d8d84828501611c9a565b91505092915050565b600060208284031215611da857600080fd5b6000611db684828501611cee565b91505092915050565b60008060408385031215611dd257600080fd5b6000611de085828601611cee565b9250506020611df185828601611c85565b9150509250929050565b6000611e078383611f41565b60208301905092915050565b611e24611e1f82612174565b612217565b82525050565b6000611e3582612112565b611e3f8185612135565b9350611e4a83612102565b8060005b83811015611e7b578151611e628882611dfb565b9750611e6d83612128565b925050600181019050611e4e565b5085935050505092915050565b611e91816121c3565b82525050565b6000611ea28261211d565b611eac8185612146565b9350611ebc8185602086016121e4565b611ec581612245565b840191505092915050565b6000611edb8261211d565b611ee58185612157565b9350611ef58185602086016121e4565b80840191505092915050565b6000611f0e601283612146565b91507f706f6c6c206973206e6f7420636c6f73656400000000000000000000000000006000830152602082019050919050565b611f4a816121b9565b82525050565b611f59816121b9565b82525050565b611f70611f6b826121b9565b61223b565b82525050565b6000611f828284611ed0565b915081905092915050565b6000611f998286611f5f565b602082019150611fa98285611f5f565b602082019150611fb98284611e13565b601482019150819050949350505050565b60006020820190508181036000830152611fe48184611e2a565b905092915050565b60006060820190506120016000830186611e88565b61200e6020830185611e88565b61201b6040830184611e88565b949350505050565b6000602082019050818103600083015261203d8184611e97565b905092915050565b6000602082019050818103600083015261205e81611f01565b9050919050565b600060208201905061207a6000830184611f50565b92915050565b60006040820190506120956000830185611f50565b6120a26020830184611f50565b9392505050565b6000604051905081810181811067ffffffffffffffff821117156120cc57600080fd5b8060405250919050565b600067ffffffffffffffff8211156120ed57600080fd5b601f19601f8301169050602081019050919050565b6000819050602082019050919050565b600081519050919050565b600081519050919050565b6000602082019050919050565b600082825260208201905092915050565b600082825260208201905092915050565b600081905092915050565b600061216d82612199565b9050919050565b600061217f82612199565b9050919050565b600081905061219482612263565b919050565b600073ffffffffffffffffffffffffffffffffffffffff82169050919050565b6000819050919050565b60006121ce82612186565b9050919050565b82818337600083830152505050565b60005b838110156122025780820151818401526020810190506121e7565b83811115612211576000848401525b50505050565b600061222282612229565b9050919050565b600061223482612256565b9050919050565b6000819050919050565b6000601f19601f8301169050919050565b60008160601b9050919050565b6004811061226d57fe5b50565b61227981612162565b811461228457600080fd5b50565b6004811061229457600080fd5b50565b6122a0816121b9565b81146122ab57600080fd5b5056fea26469706673582212208138cbc575841f927004661ecacc1e8a4296111c6d54692487e645b44e9f2c9264736f6c63430007000033",
  "source": "// SPDX-License-Identifier: GPL-3.0\r\npragma solidity >=0.7.0 <0.9.0;\r\npragma experimental ABIEncoderV2;\r\n\r\ncontract ASTRAEA {\r\n    \r\n    event PollCreated(uint256 indexed _id, address indexed _submitter, string _url); \r\n    event PollClosed(uint256 indexed _id, Outcome _gameOutcome, Outcome _votingOutcome, Outcome _certOutcome); \r\n    // event Voted(uint256 indexed _id, address indexed _voter, Outcome _belief); \r\n    // event Certified(uint256 indexed _id, address indexed _certifier, Outcome _belief); \r\n\r\n    // event ClosingDetails(uint256 indexed _id, uint256 totalTrueVoteStake, uint256 totalFalseVoteStake, uint256 totalOpinionVoteStake, uint256 totalTrueCertStake, uint256 totalFalseCertStake, uint256 totalOpinionCertStake); \r\n    // event Debug(string info); \r\n\r\n    enum Outcome { FALSE, TRUE, OPINION, NO_DECISION }\r\n\r\n    struct Belief {\r\n        uint256 trueStake; \r\n        uint256 falseStake;\r\n        uint256 opinionStake; // add enhancement 7/01: amount of opinion stake for busters\r\n    }\r\n \r\n    struct Poll {\r\n        address submitter; \r\n        bool open;\r\n\r\n        uint256 totalTrueVoteStake; \r\n        uint256 totalFalseVoteStake; \r\n        uint256 totalOpinionVoteStake; // add enhancement 7/01: amount of opinion stake for busters\r\n        mapping(address => Belief) votes; \r\n\r\n        uint256 totalTrueCertStake;\r\n        uint256 totalFalseCertStake; \r\n        uint256 totalOpinionCertStake; // add enhancement 7/01: opinion stake for certifiers\r\n        mapping(address => Belief) certs; \r\n\r\n        // outcomes \r\n        Outcome votingOutcome; \r\n        Outcome certOutcome; \r\n        Outcome gameOutcome; \r\n\r\n        uint256 certReward; \r\n    }\r\n\r\n    // all polls \r\n    mapping(uint256 => Poll) polls; \r\n\r\n    // active polls\r\n    uint256[] public activePolls; \r\n    mapping(uint256 => uint256) pollToIndex; \r\n\r\n    function getActivePolls() public view returns(uint256[] memory) {\r\n        return activePolls; \r\n    }\r\n\r\n    function addActivePoll(uint256 pollId) public {\r\n        activePolls.push(pollId); \r\n        pollToIndex[pollId] = activePolls.length; // store the index+1 (to avoid problems since default for uint is 0)  \r\n    }\r\n\r\n    function removeActivePoll(uint256 pollId) public {\r\n        uint index = pollToIndex[pollId]; \r\n        require(index > 0); // otherwise means that the poll is not inside the activePolls array \r\n\r\n        // swap the last and the removed elements \r\n        if(activePolls.length > 1) {\r\n            activePolls[index-1] = activePolls[activePolls.length-1]; \r\n            pollToIndex[activePolls[index-1]] = index;  // store always the index+1\r\n        }\r\n        activePolls.pop(); // remove last element and update length \r\n    }\r\n\r\n    uint256 public constant MAX_VOTE_STAKE = 10000000000000000; \r\n    uint256 public constant MIN_CERT_STAKE = 100000000000000000; \r\n    uint256 public constant VOTE_STAKE_LIMIT = 290000000000000000; \r\n    uint256 public constant SUBMISSION_FEE = 20000000000000000; \r\n\r\n    uint256 trueRewardPool = 0; \r\n    uint256 falseRewardPool = 0; \r\n    uint256 opinionRewardPool = 0; // add enhancement 7/01: new pool in order to not penalize certifier in case of opinion\r\n    uint256 tetha = 10; \r\n\r\n    /** SUBMITTER **/ \r\n    function submit(string memory url) public payable { \r\n        // check minimum submission fee \r\n        require(msg.value >= SUBMISSION_FEE); \r\n\r\n        // check that the url has not been already sent     \r\n        uint256 hash = uint(keccak256(abi.encodePacked(url)));\r\n        require(polls[hash].submitter == address(0)); \r\n\r\n        // set the poll to active status \r\n        polls[hash].submitter = msg.sender; \r\n        polls[hash].open = true; \r\n\r\n        // add poll to the active polls \r\n        addActivePoll(hash); \r\n\r\n        emit PollCreated(hash, msg.sender, url); \r\n    }\r\n\r\n    /** VOTER **/ \r\n    function random() public view returns(uint256) {\r\n        return uint256(keccak256(abi.encodePacked(block.timestamp, block.difficulty, msg.sender)));  \r\n    }\r\n\r\n    struct VoteReservation {\r\n        uint256 pollId; \r\n        uint256 stake; \r\n    }\r\n    mapping(address => VoteReservation) public voterReservations;  \r\n    function requestVote() public payable {\r\n        // check the voter has not already request an id (assume no poll has id == 0) \r\n        require(voterReservations[msg.sender].pollId == 0); \r\n\r\n        // check max voting stake \r\n        require(msg.value <= MAX_VOTE_STAKE); \r\n        \r\n        // get id of random poll \r\n        uint randomIndex = random() % activePolls.length;  \r\n        uint256 randomId = activePolls[randomIndex]; \r\n\r\n        // store the reservation \r\n        VoteReservation memory voteReservation = VoteReservation({pollId: randomId, stake: msg.value});\r\n        voterReservations[msg.sender] = voteReservation; \r\n    }\r\n\r\n    function outcomeToString(Outcome outcome) internal pure returns (string memory) {\r\n        if(outcome == Outcome.TRUE) return \"TRUE\"; \r\n        if(outcome == Outcome.FALSE) return \"FALSE\"; \r\n        if(outcome == Outcome.OPINION) return \"OPINION\"; \r\n        if(outcome == Outcome.NO_DECISION) return \"NO_DECISION\"; \r\n    }\r\n\r\n    function vote(Outcome belief) public {\r\n        // check that the voter has previously request a reservation \r\n        VoteReservation storage reservation = voterReservations[msg.sender]; \r\n        require(reservation.pollId != 0); \r\n\r\n        Poll storage currentPoll = polls[reservation.pollId];  \r\n\r\n        // check that the poll actually exist and its open \r\n        require(currentPoll.submitter != address(0));\r\n        require(currentPoll.open == true); \r\n\r\n        // check maximum voting stake ??? \r\n        // require(reservation.stake + polls[reservation.pollId].votes[msg.sender] <= MAX_VOTE_STAKE);  \r\n        \r\n        if(belief == Outcome.TRUE) {\r\n            currentPoll.votes[msg.sender].trueStake += reservation.stake; \r\n            currentPoll.totalTrueVoteStake += reservation.stake; \r\n        } else if(belief == Outcome.FALSE){\r\n            currentPoll.votes[msg.sender].falseStake += reservation.stake; \r\n            currentPoll.totalFalseVoteStake += reservation.stake; \r\n        } else {\r\n            currentPoll.votes[msg.sender].opinionStake += reservation.stake; \r\n            currentPoll.totalOpinionVoteStake += reservation.stake; \r\n        }      \r\n        \r\n        // emit Voted(reservation.pollId, msg.sender, belief); \r\n\r\n        // Termination condition \r\n        if(currentPoll.totalTrueVoteStake + currentPoll.totalFalseVoteStake + currentPoll.totalOpinionVoteStake >= VOTE_STAKE_LIMIT) {\r\n            currentPoll.open = false; \r\n           \r\n            // set outcomes \r\n            //______________________\r\n            //|    | T   F   O   U  |\r\n            //|----|----------------|\r\n            //|  T | U   U   U   U  |\r\n            //|  F | U   F   U   U  |\r\n            //|  O | U   U   O   U  |\r\n            //|  U | U   U   U   U  |\r\n            //|____|________________|\r\n\r\n            //outcome from busters\r\n            if(currentPoll.totalFalseVoteStake > currentPoll.totalTrueVoteStake){ // F > T\r\n                // emit Debug(\"totalFalseVoteStake > totalTrueVoteStake\"); \r\n                currentPoll.votingOutcome = currentPoll.totalFalseVoteStake > currentPoll.totalOpinionVoteStake ? Outcome.FALSE : // T < F > O\r\n                (currentPoll.totalFalseVoteStake < currentPoll.totalOpinionVoteStake ? Outcome.OPINION : Outcome.NO_DECISION); // O > F > T : F == O > T\r\n            }\r\n            else if(currentPoll.totalFalseVoteStake < currentPoll.totalTrueVoteStake){ // T > F\r\n                // emit Debug(\"totalFalseVoteStake < totalTrueVoteStake\"); \r\n                currentPoll.votingOutcome = currentPoll.totalTrueVoteStake > currentPoll.totalOpinionVoteStake ? Outcome.TRUE : // F < T > O\r\n                (currentPoll.totalTrueVoteStake < currentPoll.totalOpinionVoteStake ? Outcome.OPINION : Outcome.NO_DECISION); // O > T > F : T == O > F\r\n            }\r\n            else {\r\n                currentPoll.votingOutcome = currentPoll.totalOpinionVoteStake > currentPoll.totalTrueVoteStake ? Outcome.OPINION : Outcome.NO_DECISION; // T == F < O : T == F >= O \r\n                // emit Debug(\"Voting ELSE\"); \r\n            }\r\n            // emit Debug(string(abi.encodePacked(\"votingOutcome: \", outcomeToString(currentPoll.votingOutcome)))); \r\n\r\n            // outcome from experts (same of busters)\r\n            if(currentPoll.totalFalseCertStake > currentPoll.totalTrueCertStake){ \r\n                // emit Debug(\"totalFalseCertStake > totalTrueCertStake\"); \r\n                currentPoll.certOutcome = currentPoll.totalFalseCertStake > currentPoll.totalOpinionCertStake ? Outcome.FALSE :\r\n                (currentPoll.totalFalseCertStake < currentPoll.totalOpinionCertStake ? Outcome.OPINION : Outcome.NO_DECISION);\r\n            }\r\n            else if(currentPoll.totalFalseCertStake < currentPoll.totalTrueCertStake){\r\n                // emit Debug(\"totalFalseCertStake < totalTrueCertStake\"); \r\n                currentPoll.certOutcome = currentPoll.totalTrueCertStake > currentPoll.totalOpinionCertStake ? Outcome.TRUE :\r\n               (currentPoll.totalTrueCertStake < currentPoll.totalOpinionCertStake ? Outcome.OPINION : Outcome.NO_DECISION);\r\n            }\r\n            else { \r\n                // emit Debug(\"Cert ELSE\"); \r\n                currentPoll.certOutcome = currentPoll.totalOpinionCertStake > currentPoll.totalTrueCertStake ? Outcome.OPINION : Outcome.NO_DECISION;\r\n            }\r\n            // emit Debug(string(abi.encodePacked(\"certOutcome: \", outcomeToString(currentPoll.certOutcome)))); \r\n            \r\n            currentPoll.gameOutcome = currentPoll.votingOutcome == currentPoll.certOutcome ? \r\n                currentPoll.votingOutcome : Outcome.NO_DECISION; \r\n\r\n            if(currentPoll.gameOutcome == Outcome.NO_DECISION) {\r\n                // if no decision is taken, the submission fee goes to the reward pools \r\n                \r\n                if(currentPoll.certOutcome == Outcome.NO_DECISION) { \r\n                    trueRewardPool += SUBMISSION_FEE / 3;\r\n                    falseRewardPool += SUBMISSION_FEE / 3;\r\n                    opinionRewardPool += SUBMISSION_FEE / 3; \r\n                } else if(currentPoll.certOutcome == Outcome.TRUE) {\r\n                    falseRewardPool += SUBMISSION_FEE / 2;\r\n                    opinionRewardPool += SUBMISSION_FEE / 2; \r\n                } else if(currentPoll.certOutcome == Outcome.FALSE) {\r\n                    trueRewardPool += SUBMISSION_FEE / 2;\r\n                    opinionRewardPool += SUBMISSION_FEE / 2; \r\n                } else {\r\n                    trueRewardPool += SUBMISSION_FEE / 2;\r\n                    falseRewardPool += SUBMISSION_FEE / 2;\r\n                }\r\n            } else {\r\n                // save the reward to give to the certifiers \r\n                if(currentPoll.certOutcome == Outcome.TRUE) {\r\n                    currentPoll.certReward = trueRewardPool / tetha; \r\n                } else if(currentPoll.certOutcome == Outcome.FALSE) {\r\n                    currentPoll.certReward = falseRewardPool / tetha; \r\n                } else if(currentPoll.certOutcome == Outcome.OPINION){\r\n                    currentPoll.certReward = opinionRewardPool / tetha; \r\n                }\r\n            }\r\n        \r\n            // emit closing event \r\n            // emit ClosingDetails(reservation.pollId, currentPoll.totalTrueVoteStake, currentPoll.totalFalseVoteStake, currentPoll.totalOpinionVoteStake, currentPoll.totalTrueCertStake, currentPoll.totalFalseCertStake, currentPoll.totalOpinionCertStake); \r\n            emit PollClosed(reservation.pollId, currentPoll.gameOutcome, currentPoll.votingOutcome, currentPoll.certOutcome); \r\n\r\n            // remove poll from activePolls \r\n            removeActivePoll(reservation.pollId); \r\n        }\r\n\r\n        // delete reservation (all values are set to 0 or default) \r\n        delete voterReservations[msg.sender]; \r\n    }\r\n\r\n    /** CERTIFIER **/ \r\n    function certify(uint256 pollId, Outcome belief) public payable {\r\n        // check that the poll actually exist and its open \r\n        require(polls[pollId].submitter != address(0));\r\n        require(polls[pollId].open == true); \r\n\r\n        // check min voting stake \r\n        require(msg.value >= MIN_CERT_STAKE);  \r\n        \r\n        if(belief == Outcome.TRUE) {\r\n            polls[pollId].certs[msg.sender].trueStake += msg.value; \r\n            polls[pollId].totalTrueCertStake += msg.value; \r\n        } else if(belief == Outcome.FALSE){\r\n            polls[pollId].certs[msg.sender].falseStake += msg.value; \r\n            polls[pollId].totalFalseCertStake += msg.value; \r\n        } else{\r\n            polls[pollId].certs[msg.sender].opinionStake += msg.value;\r\n            polls[pollId].totalOpinionCertStake += msg.value; \r\n        }\r\n        \r\n        // emit Certified(pollId, msg.sender, belief);  \r\n    }\r\n\r\n    function withdraw(uint256 poolId) public payable{\r\n        Poll storage currentPoll = polls[poolId]; \r\n        require(currentPoll.open == false, \"poll is not closed\"); \r\n\r\n        uint256 reward = 0; \r\n    \r\n        // check votes \r\n        if(currentPoll.gameOutcome == Outcome.NO_DECISION) \r\n            reward += currentPoll.votes[msg.sender].trueStake + currentPoll.votes[msg.sender].opinionStake + currentPoll.votes[msg.sender].falseStake; \r\n        else if(currentPoll.gameOutcome == Outcome.TRUE && currentPoll.votes[msg.sender].trueStake > 0)\r\n            reward +=  currentPoll.votes[msg.sender].trueStake + currentPoll.votes[msg.sender].trueStake * SUBMISSION_FEE / currentPoll.totalTrueVoteStake; \r\n        else if(currentPoll.gameOutcome == Outcome.FALSE && currentPoll.votes[msg.sender].falseStake > 0)\r\n            reward += currentPoll.votes[msg.sender].falseStake + currentPoll.votes[msg.sender].falseStake * SUBMISSION_FEE / currentPoll.totalFalseVoteStake; \r\n        else if(currentPoll.gameOutcome == Outcome.OPINION && currentPoll.votes[msg.sender].opinionStake > 0)\r\n            reward += currentPoll.votes[msg.sender].opinionStake + currentPoll.votes[msg.sender].opinionStake * SUBMISSION_FEE / currentPoll.totalOpinionVoteStake; \r\n\r\n        // check certs \r\n        if(currentPoll.gameOutcome == Outcome.TRUE && currentPoll.certs[msg.sender].trueStake > 0)\r\n            reward += currentPoll.certs[msg.sender].trueStake + currentPoll.certReward  * currentPoll.certs[msg.sender].trueStake / currentPoll.totalTrueCertStake; \r\n        else if (currentPoll.gameOutcome == Outcome.FALSE && currentPoll.certs[msg.sender].falseStake > 0)\r\n            reward +=currentPoll.certs[msg.sender].falseStake + currentPoll.certReward  * currentPoll.certs[msg.sender].falseStake / currentPoll.totalFalseCertStake;         \r\n        else if (currentPoll.gameOutcome == Outcome.OPINION && currentPoll.certs[msg.sender].falseStake > 0)\r\n            reward += currentPoll.certs[msg.sender].opinionStake + currentPoll.certReward  * currentPoll.certs[msg.sender].opinionStake / currentPoll.totalOpinionCertStake;   \r\n\r\n        // send reward\r\n        if(reward > 0) {\r\n            payable(msg.sender).transfer(reward);\r\n        }\r\n    }   \r\n}\r\n",
  "sourcePath": "C:\\Users\\Egon\\Desktop\\CNS\\FakeBuster\\contracts\\astraea.sol",
  "compiler": {
    "name": "solc",
    "version": "0.7.0+commit.9e61f92b.Emscripten.clang",
    "optimizer": false,
    "runs": 200
  },
  "schemaVersion": "2.3.5",
  "updatedAt": "2022-02-06T23:42:23.104Z"
}