{
  "contractName": "ASTRAEA",
  "abi": [
    {
      "anonymous": false,
      "inputs": [
        {
          "indexed": true,
          "internalType": "uint256",
          "name": "_id",
          "type": "uint256"
        },
        {
          "indexed": false,
          "internalType": "enum ASTRAEA.Outcome",
          "name": "_gameOutcome",
          "type": "uint8"
        },
        {
          "indexed": false,
          "internalType": "enum ASTRAEA.Outcome",
          "name": "_votingOutcome",
          "type": "uint8"
        },
        {
          "indexed": false,
          "internalType": "enum ASTRAEA.Outcome",
          "name": "_certOutcome",
          "type": "uint8"
        }
      ],
      "name": "PollClosed",
      "type": "event"
    },
    {
      "anonymous": false,
      "inputs": [
        {
          "indexed": true,
          "internalType": "uint256",
          "name": "_id",
          "type": "uint256"
        },
        {
          "indexed": true,
          "internalType": "address",
          "name": "_submitter",
          "type": "address"
        },
        {
          "indexed": false,
          "internalType": "string",
          "name": "_url",
          "type": "string"
        }
      ],
      "name": "PollCreated",
      "type": "event"
    },
    {
      "anonymous": false,
      "inputs": [
        {
          "indexed": false,
          "internalType": "uint256",
          "name": "value",
          "type": "uint256"
        }
      ],
      "name": "Reward",
      "type": "event"
    },
    {
      "inputs": [],
      "name": "MAX_VOTE_STAKE",
      "outputs": [
        {
          "internalType": "uint256",
          "name": "",
          "type": "uint256"
        }
      ],
      "stateMutability": "view",
      "type": "function"
    },
    {
      "inputs": [],
      "name": "MIN_CERT_STAKE",
      "outputs": [
        {
          "internalType": "uint256",
          "name": "",
          "type": "uint256"
        }
      ],
      "stateMutability": "view",
      "type": "function"
    },
    {
      "inputs": [],
      "name": "SUBMISSION_FEE",
      "outputs": [
        {
          "internalType": "uint256",
          "name": "",
          "type": "uint256"
        }
      ],
      "stateMutability": "view",
      "type": "function"
    },
    {
      "inputs": [],
      "name": "VOTE_STAKE_LIMIT",
      "outputs": [
        {
          "internalType": "uint256",
          "name": "",
          "type": "uint256"
        }
      ],
      "stateMutability": "view",
      "type": "function"
    },
    {
      "inputs": [
        {
          "internalType": "uint256",
          "name": "",
          "type": "uint256"
        }
      ],
      "name": "activePolls",
      "outputs": [
        {
          "internalType": "uint256",
          "name": "",
          "type": "uint256"
        }
      ],
      "stateMutability": "view",
      "type": "function"
    },
    {
      "inputs": [
        {
          "internalType": "address",
          "name": "",
          "type": "address"
        }
      ],
      "name": "voterReservations",
      "outputs": [
        {
          "internalType": "uint256",
          "name": "pollId",
          "type": "uint256"
        },
        {
          "internalType": "uint256",
          "name": "stake",
          "type": "uint256"
        }
      ],
      "stateMutability": "view",
      "type": "function"
    },
    {
      "inputs": [],
      "name": "getActivePolls",
      "outputs": [
        {
          "internalType": "uint256[]",
          "name": "",
          "type": "uint256[]"
        }
      ],
      "stateMutability": "view",
      "type": "function"
    },
    {
      "inputs": [
        {
          "internalType": "uint256",
          "name": "pollId",
          "type": "uint256"
        }
      ],
      "name": "addActivePoll",
      "outputs": [],
      "stateMutability": "nonpayable",
      "type": "function"
    },
    {
      "inputs": [
        {
          "internalType": "uint256",
          "name": "pollId",
          "type": "uint256"
        }
      ],
      "name": "removeActivePoll",
      "outputs": [],
      "stateMutability": "nonpayable",
      "type": "function"
    },
    {
      "inputs": [
        {
          "internalType": "string",
          "name": "url",
          "type": "string"
        }
      ],
      "name": "submit",
      "outputs": [],
      "stateMutability": "payable",
      "type": "function"
    },
    {
      "inputs": [],
      "name": "random",
      "outputs": [
        {
          "internalType": "uint256",
          "name": "",
          "type": "uint256"
        }
      ],
      "stateMutability": "view",
      "type": "function"
    },
    {
      "inputs": [],
      "name": "requestVote",
      "outputs": [],
      "stateMutability": "payable",
      "type": "function"
    },
    {
      "inputs": [
        {
          "internalType": "bool",
          "name": "belief",
          "type": "bool"
        }
      ],
      "name": "vote",
      "outputs": [],
      "stateMutability": "nonpayable",
      "type": "function"
    },
    {
      "inputs": [
        {
          "internalType": "uint256",
          "name": "pollId",
          "type": "uint256"
        },
        {
          "internalType": "bool",
          "name": "belief",
          "type": "bool"
        }
      ],
      "name": "certify",
      "outputs": [],
      "stateMutability": "payable",
      "type": "function"
    },
    {
      "inputs": [
        {
          "internalType": "uint256",
          "name": "poolId",
          "type": "uint256"
        }
      ],
      "name": "withdraw",
      "outputs": [],
      "stateMutability": "payable",
      "type": "function"
    }
  ],
  "bytecode": "0x608060405260006003556000600455600a60055534801561001f57600080fd5b50611b598061002f6000396000f3fe6080604052600436106100e85760003560e01c806363a9492f1161008a57806395beacd51161005957806395beacd5146102c7578063d99a8dc3146102f2578063da1c0ee11461030e578063edb39cdc14610339576100e8565b806363a9492f146101f65780637d48536d146102215780637d66c0971461024c57806386fea9e214610289576100e8565b806359232a09116100c657806359232a091461015d5780635c42fc89146101865780635ec01e4d146101af57806362816d7d146101da576100e8565b80631c5d95c1146100ed5780632e1a7d4d146101185780634b9f5c9814610134575b600080fd5b3480156100f957600080fd5b50610102610343565b60405161010f91906118bc565b60405180910390f35b610132600480360381019061012d91906115be565b610348565b005b34801561014057600080fd5b5061015b60048036038101906101569190611554565b6108b5565b005b34801561016957600080fd5b50610184600480360381019061017f91906115be565b610e2e565b005b34801561019257600080fd5b506101ad60048036038101906101a891906115be565b610ef2565b005b3480156101bb57600080fd5b506101c4610f3b565b6040516101d191906118bc565b60405180910390f35b6101f460048036038101906101ef91906115e7565b610f70565b005b34801561020257600080fd5b5061020b61113c565b6040516102189190611821565b60405180910390f35b34801561022d57600080fd5b50610236611194565b60405161024391906118bc565b60405180910390f35b34801561025857600080fd5b50610273600480360381019061026e91906115be565b611199565b60405161028091906118bc565b60405180910390f35b34801561029557600080fd5b506102b060048036038101906102ab919061152b565b6111ba565b6040516102be9291906118d7565b60405180910390f35b3480156102d357600080fd5b506102dc6111de565b6040516102e991906118bc565b60405180910390f35b61030c6004803603810190610307919061157d565b6111e3565b005b34801561031a57600080fd5b5061032361136b565b60405161033091906118bc565b60405180910390f35b610341611370565b005b606481565b60008060008381526020019081526020016000209050600015158160000160149054906101000a900460ff1615151461038057600080fd5b600060028081111561038e57fe5b8260070160029054906101000a900460ff1660028111156103ab57fe5b1415610445578160030160003373ffffffffffffffffffffffffffffffffffffffff1673ffffffffffffffffffffffffffffffffffffffff168152602001908152602001600020600101548260030160003373ffffffffffffffffffffffffffffffffffffffff1673ffffffffffffffffffffffffffffffffffffffff1681526020019081526020016000206000015401810190506105ff565b6001600281111561045257fe5b8260070160029054906101000a900460ff16600281111561046f57fe5b1480156104c0575060008260030160003373ffffffffffffffffffffffffffffffffffffffff1673ffffffffffffffffffffffffffffffffffffffff16815260200190815260200160002060000154115b156105235760c882600101548360030160003373ffffffffffffffffffffffffffffffffffffffff1673ffffffffffffffffffffffffffffffffffffffff168152602001908152602001600020600001548161051857fe5b0402810190506105fe565b6000600281111561053057fe5b8260070160029054906101000a900460ff16600281111561054d57fe5b14801561059e575060008260030160003373ffffffffffffffffffffffffffffffffffffffff1673ffffffffffffffffffffffffffffffffffffffff16815260200190815260200160002060010154115b156105fd5760c882600201548360030160003373ffffffffffffffffffffffffffffffffffffffff1673ffffffffffffffffffffffffffffffffffffffff16815260200190815260200160002060010154816105f657fe5b0402810190505b5b5b6001600281111561060c57fe5b8260070160029054906101000a900460ff16600281111561062957fe5b14801561067a575060008260060160003373ffffffffffffffffffffffffffffffffffffffff1673ffffffffffffffffffffffffffffffffffffffff16815260200190815260200160002060000154115b156106e0578160060160003373ffffffffffffffffffffffffffffffffffffffff1673ffffffffffffffffffffffffffffffffffffffff1681526020019081526020016000206000015482600401548360080154816106d557fe5b0402810190506107be565b600060028111156106ed57fe5b8260070160029054906101000a900460ff16600281111561070a57fe5b14801561075b575060008260060160003373ffffffffffffffffffffffffffffffffffffffff1673ffffffffffffffffffffffffffffffffffffffff16815260200190815260200160002060010154115b156107bd578160060160003373ffffffffffffffffffffffffffffffffffffffff1673ffffffffffffffffffffffffffffffffffffffff1681526020019081526020016000206001015482600501548360080154816107b657fe5b0402810190505b5b7f3ac0594a85a20354f9dc74f33728416d19ce00d04a406c108cc2dcf2cecea134816040516107ed91906118bc565b60405180910390a160008111156108b057600060603373ffffffffffffffffffffffffffffffffffffffff1683604051610826906117cf565b60006040518083038185875af1925050503d8060008114610863576040519150601f19603f3d011682016040523d82523d6000602084013e610868565b606091505b5091509150816108ad576040517f08c379a00000000000000000000000000000000000000000000000000000000081526004016108a49061189c565b60405180910390fd5b50505b505050565b6000600660003373ffffffffffffffffffffffffffffffffffffffff1673ffffffffffffffffffffffffffffffffffffffff168152602001908152602001600020905060008160000154141561090a57600080fd5b6000806000836000015481526020019081526020016000209050600073ffffffffffffffffffffffffffffffffffffffff168160000160009054906101000a900473ffffffffffffffffffffffffffffffffffffffff1673ffffffffffffffffffffffffffffffffffffffff16141561098257600080fd5b600115158160000160149054906101000a900460ff161515146109a457600080fd5b8215610a1b5781600101548160030160003373ffffffffffffffffffffffffffffffffffffffff1673ffffffffffffffffffffffffffffffffffffffff1681526020019081526020016000206000016000828254019250508190555081600101548160010160008282540192505081905550610a88565b81600101548160030160003373ffffffffffffffffffffffffffffffffffffffff1673ffffffffffffffffffffffffffffffffffffffff16815260200190815260200160002060010160008282540192505081905550816001015481600201600082825401925050819055505b6064816002015482600101540110610dd75760008160000160146101000a81548160ff0219169083151502179055508060010154816002015414610ae4578060010154816002015411610adc576001610adf565b60005b610ae7565b60025b8160070160006101000a81548160ff02191690836002811115610b0657fe5b02179055508060040154816005015414610b38578060040154816005015411610b30576001610b33565b60005b610b3b565b60025b8160070160016101000a81548160ff02191690836002811115610b5a57fe5b02179055508060070160019054906101000a900460ff166002811115610b7c57fe5b8160070160009054906101000a900460ff166002811115610b9957fe5b14610ba5576002610bb8565b8060070160009054906101000a900460ff165b8160070160026101000a81548160ff02191690836002811115610bd757fe5b0217905550600280811115610be857fe5b8160070160029054906101000a900460ff166002811115610c0557fe5b1415610cc25760c860036000828254019250508190555060016002811115610c2957fe5b8160070160019054906101000a900460ff166002811115610c4657fe5b1415610c6e5760055460035481610c5957fe5b04600460008282540192505081905550610cbd565b60006002811115610c7b57fe5b8160070160019054906101000a900460ff166002811115610c9857fe5b1415610cbc5760055460045481610cab57fe5b046003600082825401925050819055505b5b610d56565b60016002811115610ccf57fe5b8160070160019054906101000a900460ff166002811115610cec57fe5b1415610d0d5760055460035481610cff57fe5b048160080181905550610d55565b60006002811115610d1a57fe5b8160070160019054906101000a900460ff166002811115610d3757fe5b1415610d545760055460045481610d4a57fe5b0481600801819055505b5b5b81600001547fe3df51d5fda0832a4528264045c49ae60a110a56a47fb243ff3bfd6333b057958260070160029054906101000a900460ff168360070160009054906101000a900460ff168460070160019054906101000a900460ff16604051610dc193929190611843565b60405180910390a2610dd68260000154610e2e565b5b600660003373ffffffffffffffffffffffffffffffffffffffff1673ffffffffffffffffffffffffffffffffffffffff16815260200190815260200160002060008082016000905560018201600090555050505050565b60006002600083815260200190815260200160002054905060008111610e5357600080fd5b600180805490501115610ecd5760018080805490500381548110610e7357fe5b9060005260206000200154600180830381548110610e8d57fe5b90600052602060002001819055508060026000600180850381548110610eaf57fe5b90600052602060002001548152602001908152602001600020819055505b6001805480610ed857fe5b600190038181906000526020600020016000905590555050565b6001819080600181540180825580915050600190039060005260206000200160009091909190915055600180549050600260008381526020019081526020016000208190555050565b6000424433604051602001610f52939291906117e4565b6040516020818303038152906040528051906020012060001c905090565b600073ffffffffffffffffffffffffffffffffffffffff1660008084815260200190815260200160002060000160009054906101000a900473ffffffffffffffffffffffffffffffffffffffff1673ffffffffffffffffffffffffffffffffffffffff161415610fdf57600080fd5b6001151560008084815260200190815260200160002060000160149054906101000a900460ff1615151461101257600080fd5b603234101561102057600080fd5b80156110b1573460008084815260200190815260200160002060060160003373ffffffffffffffffffffffffffffffffffffffff1673ffffffffffffffffffffffffffffffffffffffff168152602001908152602001600020600001600082825401925050819055503460008084815260200190815260200160002060040160008282540192505081905550611138565b3460008084815260200190815260200160002060060160003373ffffffffffffffffffffffffffffffffffffffff1673ffffffffffffffffffffffffffffffffffffffff1681526020019081526020016000206001016000828254019250508190555034600080848152602001908152602001600020600501600082825401925050819055505b5050565b6060600180548060200260200160405190810160405280929190818152602001828054801561118a57602002820191906000526020600020905b815481526020019060010190808311611176575b5050505050905090565b60c881565b600181815481106111a657fe5b906000526020600020016000915090505481565b60066020528060005260406000206000915090508060000154908060010154905082565b60c881565b60c83410156111f157600080fd5b60008160405160200161120491906117b8565b6040516020818303038152906040528051906020012060001c9050600073ffffffffffffffffffffffffffffffffffffffff1660008083815260200190815260200160002060000160009054906101000a900473ffffffffffffffffffffffffffffffffffffffff1673ffffffffffffffffffffffffffffffffffffffff161461128d57600080fd5b3360008083815260200190815260200160002060000160006101000a81548173ffffffffffffffffffffffffffffffffffffffff021916908373ffffffffffffffffffffffffffffffffffffffff160217905550600160008083815260200190815260200160002060000160146101000a81548160ff02191690831515021790555061131881610ef2565b3373ffffffffffffffffffffffffffffffffffffffff16817f7cf84e937b660a86b8d03903abf94c2e2976b2273da8dfbef2d89b7ac560463e8460405161135f919061187a565b60405180910390a35050565b603281565b6000600660003373ffffffffffffffffffffffffffffffffffffffff1673ffffffffffffffffffffffffffffffffffffffff16815260200190815260200160002060000154146113bf57600080fd5b60c83411156113cd57600080fd5b60006001805490506113dd610f3b565b816113e457fe5b0690506000600182815481106113f657fe5b9060005260206000200154905061140b61147e565b604051806040016040528083815260200134815250905080600660003373ffffffffffffffffffffffffffffffffffffffff1673ffffffffffffffffffffffffffffffffffffffff1681526020019081526020016000206000820151816000015560208201518160010155905050505050565b604051806040016040528060008152602001600081525090565b6000813590506114a781611ade565b92915050565b6000813590506114bc81611af5565b92915050565b600082601f8301126114d357600080fd5b81356114e66114e18261192d565b611900565b9150808252602083016020830185838301111561150257600080fd5b61150d838284611a43565b50505092915050565b60008135905061152581611b0c565b92915050565b60006020828403121561153d57600080fd5b600061154b84828501611498565b91505092915050565b60006020828403121561156657600080fd5b6000611574848285016114ad565b91505092915050565b60006020828403121561158f57600080fd5b600082013567ffffffffffffffff8111156115a957600080fd5b6115b5848285016114c2565b91505092915050565b6000602082840312156115d057600080fd5b60006115de84828501611516565b91505092915050565b600080604083850312156115fa57600080fd5b600061160885828601611516565b9250506020611619858286016114ad565b9150509250929050565b600061162f8383611783565b60208301905092915050565b61164c611647826119d6565b611a85565b82525050565b600061165d82611969565b611667818561198c565b935061167283611959565b8060005b838110156116a357815161168a8882611623565b97506116958361197f565b925050600181019050611676565b5085935050505092915050565b6116b981611a31565b82525050565b60006116ca82611974565b6116d481856119a8565b93506116e4818560208601611a52565b6116ed81611ab3565b840191505092915050565b600061170382611974565b61170d81856119b9565b935061171d818560208601611a52565b80840191505092915050565b60006117366014836119a8565b91507f4661696c656420746f2073656e642045746865720000000000000000000000006000830152602082019050919050565b600061177660008361199d565b9150600082019050919050565b61178c81611a27565b82525050565b61179b81611a27565b82525050565b6117b26117ad82611a27565b611aa9565b82525050565b60006117c482846116f8565b915081905092915050565b60006117da82611769565b9150819050919050565b60006117f082866117a1565b60208201915061180082856117a1565b602082019150611810828461163b565b601482019150819050949350505050565b6000602082019050818103600083015261183b8184611652565b905092915050565b600060608201905061185860008301866116b0565b61186560208301856116b0565b61187260408301846116b0565b949350505050565b6000602082019050818103600083015261189481846116bf565b905092915050565b600060208201905081810360008301526118b581611729565b9050919050565b60006020820190506118d16000830184611792565b92915050565b60006040820190506118ec6000830185611792565b6118f96020830184611792565b9392505050565b6000604051905081810181811067ffffffffffffffff8211171561192357600080fd5b8060405250919050565b600067ffffffffffffffff82111561194457600080fd5b601f19601f8301169050602081019050919050565b6000819050602082019050919050565b600081519050919050565b600081519050919050565b6000602082019050919050565b600082825260208201905092915050565b600081905092915050565b600082825260208201905092915050565b600081905092915050565b60006119cf82611a07565b9050919050565b60006119e182611a07565b9050919050565b60008115159050919050565b6000819050611a0282611ad1565b919050565b600073ffffffffffffffffffffffffffffffffffffffff82169050919050565b6000819050919050565b6000611a3c826119f4565b9050919050565b82818337600083830152505050565b60005b83811015611a70578082015181840152602081019050611a55565b83811115611a7f576000848401525b50505050565b6000611a9082611a97565b9050919050565b6000611aa282611ac4565b9050919050565b6000819050919050565b6000601f19601f8301169050919050565b60008160601b9050919050565b60038110611adb57fe5b50565b611ae7816119c4565b8114611af257600080fd5b50565b611afe816119e8565b8114611b0957600080fd5b50565b611b1581611a27565b8114611b2057600080fd5b5056fea264697066735822122049f1a94d9641a3486de38f15ccbc48267005c6df343fe97aed1f8ad6f6d07eca64736f6c63430007000033",
  "source": "// SPDX-License-Identifier: GPL-3.0\r\npragma solidity >=0.7.0 <0.9.0;\r\npragma experimental ABIEncoderV2;\r\n\r\ncontract ASTRAEA {\r\n    \r\n    event PollCreated(uint256 indexed _id, address indexed _submitter, string _url); \r\n    event PollClosed(uint256 indexed _id, Outcome _gameOutcome, Outcome _votingOutcome, Outcome _certOutcome); \r\n\r\n    enum Outcome { FALSE, TRUE, NO_DECISION }\r\n\r\n    struct Belief {\r\n        uint256 trueStake; \r\n        uint256 falseStake; \r\n    }\r\n \r\n    struct Poll {\r\n        address submitter; \r\n        bool open;\r\n\r\n        uint256 totalTrueVoteStake; \r\n        uint256 totalFalseVoteStake; \r\n        mapping(address => Belief) votes; \r\n\r\n        uint256 totalTrueCertStake;\r\n        uint256 totalFalseCertStake; \r\n        mapping(address => Belief) certs; \r\n\r\n        // outcomes \r\n        Outcome votingOutcome; \r\n        Outcome certOutcome; \r\n        Outcome gameOutcome; \r\n\r\n        uint256 certReward; \r\n    }\r\n\r\n    // all polls \r\n    mapping(uint256 => Poll) polls; \r\n\r\n    // active polls\r\n    uint256[] public activePolls; \r\n    mapping(uint256 => uint256) pollToIndex; \r\n\r\n    function getActivePolls() public view returns(uint256[] memory) {\r\n        return activePolls; \r\n    }\r\n\r\n    function addActivePoll(uint256 pollId) public {\r\n        activePolls.push(pollId); \r\n        pollToIndex[pollId] = activePolls.length; // store the index+1 (to avoid problems since default for uint is 0)  \r\n    }\r\n\r\n    function removeActivePoll(uint256 pollId) public {\r\n        uint index = pollToIndex[pollId]; \r\n        require(index > 0); // otherwise means that the poll is not inside the activePolls array \r\n\r\n        // swap the last and the removed elements \r\n        if(activePolls.length > 1) {\r\n            activePolls[index-1] = activePolls[activePolls.length-1]; \r\n            pollToIndex[activePolls[index-1]] = index;  // store always the index+1\r\n        }\r\n        activePolls.pop(); // remove last element and update length \r\n    }\r\n\r\n    uint256 public constant MAX_VOTE_STAKE = 200; // this should be lower than VOTE_STAKE_LIMIT \r\n    uint256 public constant MIN_CERT_STAKE = 50; \r\n    uint256 public constant VOTE_STAKE_LIMIT = 100; \r\n    uint256 public constant SUBMISSION_FEE = 200; \r\n\r\n    uint256 trueRewardPool = 0; \r\n    uint256 falseRewardPool = 0; \r\n    uint256 tetha = 10; \r\n\r\n    /** SUBMITTER **/ \r\n    function submit(string memory url) public payable { \r\n        // check minimum submission fee \r\n        require(msg.value >= SUBMISSION_FEE); \r\n\r\n        // check that the url has not been already sent     \r\n        uint256 hash = uint(keccak256(abi.encodePacked(url)));\r\n        require(polls[hash].submitter == address(0)); \r\n\r\n        // set the poll to active status \r\n        polls[hash].submitter = msg.sender; \r\n        polls[hash].open = true; \r\n\r\n        // add poll to the active polls \r\n        addActivePoll(hash); \r\n\r\n        emit PollCreated(hash, msg.sender, url); \r\n    }\r\n\r\n    /** VOTER **/ \r\n    function random() public view returns(uint256) {\r\n        return uint256(keccak256(abi.encodePacked(block.timestamp, block.difficulty, msg.sender)));  \r\n    }\r\n\r\n    struct VoteReservation {\r\n        uint256 pollId; \r\n        uint256 stake; \r\n    }\r\n    mapping(address => VoteReservation) public voterReservations;  \r\n    function requestVote() public payable {\r\n        // check the voter has not already request an id (assume no poll has id == 0) \r\n        require(voterReservations[msg.sender].pollId == 0); \r\n\r\n        // check max voting stake \r\n        require(msg.value <= MAX_VOTE_STAKE); \r\n        \r\n        // get id of random poll \r\n        uint randomIndex = random() % activePolls.length;  \r\n        uint256 randomId = activePolls[randomIndex]; \r\n\r\n        // store the reservation \r\n        VoteReservation memory voteReservation = VoteReservation({pollId: randomId, stake: msg.value});\r\n        voterReservations[msg.sender] = voteReservation; \r\n    }\r\n\r\n    function vote(bool belief) public {\r\n        // check that the voter has previously request a reservation \r\n        VoteReservation storage reservation = voterReservations[msg.sender]; \r\n        require(reservation.pollId != 0); \r\n\r\n        Poll storage currentPoll = polls[reservation.pollId];  \r\n\r\n        // check that the poll actually exist and its open \r\n        require(currentPoll.submitter != address(0));\r\n        require(currentPoll.open == true); \r\n\r\n        // check maximum voting stake ??? \r\n        // require(reservation.stake + polls[reservation.pollId].votes[msg.sender] <= MAX_VOTE_STAKE);  \r\n        \r\n        if(belief) {\r\n            currentPoll.votes[msg.sender].trueStake += reservation.stake; \r\n            currentPoll.totalTrueVoteStake += reservation.stake; \r\n        } else {\r\n            currentPoll.votes[msg.sender].falseStake += reservation.stake; \r\n            currentPoll.totalFalseVoteStake += reservation.stake; \r\n        }        \r\n\r\n        // Termination condition \r\n        if(currentPoll.totalTrueVoteStake + currentPoll.totalFalseVoteStake >= VOTE_STAKE_LIMIT) {\r\n            currentPoll.open = false; \r\n            \r\n            // set outcomes \r\n            currentPoll.votingOutcome = currentPoll.totalFalseVoteStake == currentPoll.totalTrueVoteStake\r\n                ? Outcome.NO_DECISION : currentPoll.totalFalseVoteStake > currentPoll.totalTrueVoteStake ? \r\n                    Outcome.FALSE : Outcome.TRUE; \r\n                    \r\n            currentPoll.certOutcome = currentPoll.totalFalseCertStake == currentPoll.totalTrueCertStake\r\n                ? Outcome.NO_DECISION : currentPoll.totalFalseCertStake > currentPoll.totalTrueCertStake ? \r\n                    Outcome.FALSE : Outcome.TRUE; \r\n            \r\n            currentPoll.gameOutcome = currentPoll.votingOutcome == currentPoll.certOutcome ? \r\n                currentPoll.votingOutcome : Outcome.NO_DECISION; \r\n\r\n            if(currentPoll.gameOutcome == Outcome.NO_DECISION) {\r\n                // if no decision is taken, the submission fee goes to the reward pools \r\n                trueRewardPool += SUBMISSION_FEE; \r\n\r\n                // reward pools swap\r\n                if(currentPoll.certOutcome == Outcome.TRUE) {\r\n                    falseRewardPool += trueRewardPool / tetha; \r\n                } else if(currentPoll.certOutcome == Outcome.FALSE) {\r\n                    trueRewardPool += falseRewardPool / tetha; \r\n                }\r\n            } else {\r\n                // save the reward to give to the certifiers \r\n                if(currentPoll.certOutcome == Outcome.TRUE) {\r\n                    currentPoll.certReward = trueRewardPool / tetha; \r\n                } else if(currentPoll.certOutcome == Outcome.FALSE) {\r\n                    currentPoll.certReward = falseRewardPool / tetha; \r\n                }\r\n            }\r\n        \r\n            // emit closing event \r\n            emit PollClosed(reservation.pollId, currentPoll.gameOutcome, currentPoll.votingOutcome, currentPoll.certOutcome); \r\n\r\n            // remove poll from activePolls \r\n            removeActivePoll(reservation.pollId); \r\n        }\r\n\r\n        // delete reservation (all values are set to 0 or default) \r\n        delete voterReservations[msg.sender]; \r\n    }\r\n\r\n    /** CERTIFIER **/ \r\n    function certify(uint256 pollId, bool belief) public payable {\r\n        // check that the poll actually exist and its open \r\n        require(polls[pollId].submitter != address(0));\r\n        require(polls[pollId].open == true); \r\n\r\n        // check min voting stake \r\n        require(msg.value >= MIN_CERT_STAKE);  \r\n        \r\n        if(belief) {\r\n            polls[pollId].certs[msg.sender].trueStake += msg.value; \r\n            polls[pollId].totalTrueCertStake += msg.value; \r\n        } else {\r\n            polls[pollId].certs[msg.sender].falseStake += msg.value; \r\n            polls[pollId].totalFalseCertStake += msg.value; \r\n        }\r\n     \r\n    }\r\n\r\n    event Reward(uint256 value); \r\n    function withdraw(uint256 poolId) public payable{\r\n        Poll storage currentPoll = polls[poolId]; \r\n        require(currentPoll.open == false); \r\n\r\n        uint256 reward = 0; \r\n    \r\n        // check votes \r\n        if(currentPoll.gameOutcome == Outcome.NO_DECISION) \r\n            reward += currentPoll.votes[msg.sender].trueStake + currentPoll.votes[msg.sender].falseStake; \r\n        else if(currentPoll.gameOutcome == Outcome.TRUE && currentPoll.votes[msg.sender].trueStake > 0)\r\n            reward += currentPoll.votes[msg.sender].trueStake / currentPoll.totalTrueVoteStake * SUBMISSION_FEE; \r\n        else if(currentPoll.gameOutcome == Outcome.FALSE && currentPoll.votes[msg.sender].falseStake > 0)\r\n            reward += currentPoll.votes[msg.sender].falseStake / currentPoll.totalFalseVoteStake * SUBMISSION_FEE; \r\n\r\n        // check certs \r\n        if(currentPoll.gameOutcome == Outcome.TRUE && currentPoll.certs[msg.sender].trueStake > 0)\r\n            reward += currentPoll.certReward / currentPoll.totalTrueCertStake * currentPoll.certs[msg.sender].trueStake; \r\n        else if (currentPoll.gameOutcome == Outcome.FALSE && currentPoll.certs[msg.sender].falseStake > 0)\r\n            reward += currentPoll.certReward / currentPoll.totalFalseCertStake * currentPoll.certs[msg.sender].falseStake;            \r\n    \r\n        emit Reward(reward); \r\n\r\n        // send reward\r\n        if(reward > 0) {\r\n            (bool sent, bytes memory data) = msg.sender.call{value: reward}(\"\");\r\n            require(sent, \"Failed to send Ether\");\r\n        }\r\n    }   \r\n}\r\n",
  "sourcePath": "C:\\Users\\Egon\\Desktop\\Advanced\\FakeBuster\\contracts\\astrea.sol",
  "compiler": {
    "name": "solc",
    "version": "0.7.0+commit.9e61f92b.Emscripten.clang",
    "optimizer": false,
    "runs": 200
  },
  "schemaVersion": "2.3.5",
  "updatedAt": "2021-12-24T14:58:22.316Z"
}